:060000000A128A110C280F
:10000800FE00030EF1000A08F2000A128A111528F0
:100018000A128A110F28F601F70183010A128A11C0
:100028001729831203138C1D1A281B286B281412F6
:10003800141B1F2820282428941F23282428292813
:100048001308F70014139413141683160313941A41
:100058002E282F2849281419322833284928831292
:1000680003131308F7008C11141683160313141CBA
:100078003E283F2839288312031313088800A63026
:10008800F000F00B452800006828941A4C284D28E9
:100098006828141D50285128682883120313130850
:1000A800F700831603131410831203130608930032
:1000B8001416A630F000F00B5F2800008316031317
:1000C8001418672868286228831203138C11720891
:1000D8008A00710E8300FE0E7E0E0900F500750879
:1000E800031D772878289128C330831203139F05AE
:1000F8002130F300F30B7E28831203139F149F18FB
:100108008628872883280C130D30F400FB30F30071
:10011800F30B8C28F40B8C2891287503031D952864
:100128009628B128831203131F08C33904389F0087
:100138002130F300F30B9E28831203139F149F189A
:10014800A628A728A3280C130D30F400FB30F300D1
:10015800F30BAC28F40BAC28B1280800F4007408A1
:10016800031DB728B828BE28831603130514831661
:10017800031708147403031DC228C328C92883164B
:1001880003138514831603178814831203131F1788
:100198009F13831603131F129F129F1383120313B7
:1001A8001F119F111F129F121F142130F300F30B10
:1001B800DB280800831603178801890183160313B7
:1001C80086018801831203138601880150300A12C0
:1001D8008A11FD200A128A1107300A128A112A216F
:1001E8000A128A1100300A128A11B2200A128A11E0
:1001F8000800F30073088316031393003630831244
:100208000313940080308316031394000130910087
:10021800871507168B170B17831203138C11831678
:1002280003138C1508000A128A11DE200A128A119B
:1002380000300A128A1172200A128A1183120313DB
:100248001E0886001C290A128A110C28F40074085A
:10025800F300F30E831603130F0873068F39730622
:060268008F000F140800D6
:08400000FF3FFF3FFF3FFF3FC0
:04400E00D420FF3F7C
:00000001FF
