:060000000A128A11FC2F18
:100014008316031788018901831603138601880157
:1000240083120313860188010030A3000130A2006B
:100034008630A100A030A0000A128A15C2260A1236
:100044008A1107300A128A1501260A128A110A1225
:100054008A11E5200A128A11080083120313A101F0
:10006400FC1F352836283D28FB09FC09FB0A031927
:10007400FC0AA101A10AFA1F402841284628F909CF
:10008400FA09F90A0319FA0A79087A0403194B28B8
:100094004C287B28A001A00A5A2801300310F90D2E
:1000A400FA0DFF3E031D50280130FD007D08A00716
:1000B400FA1F5D285E284F287A087C02031D6428F5
:1000C40079087B02031C672868286E287908FB02DC
:1000D4007A08031CFC03FC0201300310FA0CF90C2F
:1000E400FF3E031D6F280130A002031D7A287B28E0
:1000F4005E28210803197F2880288528FB09FC092C
:10010400FB0A0319FC0A7C08FA007B08F9000800C2
:10011400F9000A128A15CB250A128A11D030F00090
:100124000030F1000A128A15DD250A128A117908B5
:10013400F600F7017608F0007708F1000A128A1534
:10014400DD250A128A110A128A15C2250A128A1199
:10015400D130F0000030F1000A128A15DD250A12B0
:100164008A110030F000F1000A128A155F260A1283
:100174008A117008FA000A128A15D4250A128A1103
:100184000330F8000830F7007730F600F60BC82883
:10019400F70BC828F80BC8280F307A05F6000A3088
:1001A400F0007A08F70004300310F70CFF3E031D3B
:1001B400D62877080A128A150E260A128A1176079B
:1001C400FA007A08080000300A128A153D260A123D
:1001D4008A113430F500F130F400F40BEF28F50BFC
:1001E400EF28F42803300A128A1523260A128A11EA
:1001F4000D30F500FB30F400F40BFE28F50BFE285F
:10020400032903300A128A1523260A128A111D3083
:10021400F5009130F400F40B0D29F50B0D29033092
:100224000A128A1523260A128A1102300A128A1522
:1002340023260A128A1102300A128A1523260A1268
:100244008A1108300A128A1523260A128A110030EC
:100254000A128A1523260A128A110C300A128A15E8
:1002640023260A128A1100300A128A1523260A123A
:100274008A1106300A128A1523260A128A110800E6
:100284000030FC000030FB000030FA000030F900C0
:1002940073087204710470040319512952299F29A7
:1002A400FD01FD0A62290130F8000310F00DF10D83
:1002B400F20DF30DF80B57290130F8007808FD070B
:1002C400F31F6529662955290130F8000310F90D3B
:1002D400FA0DFB0DFC0DF80B682973087702031D5A
:1002E4007D2972087602031D7D2971087502031D9C
:1002F4007D2970087402031C8029812990297008C3
:10030400F4027108031C710FF5027208031C720FCA
:10031400F6027308031C730FF702791401300310FB
:10032400F30CF20CF10CF00CFF3E031D912901308B
:10033400FD02031D9E299F2966297C08F3007B0882
:10034400F2007A08F1007908F0000800F601F11FC4
:10035400AC29AD29B429F009F109F00A0319F10A0D
:10036400F601F60AF31FB729B829C129F209F309DE
:10037400F20A0319F30A0130F4007408F606F701CF
:10038400F801700871040319C829C929002AF50164
:10039400F50AD72901300310F00DF10DFF3E031DBE
:1003A400CD290130F4007408F507F11FDA29DB299F
:1003B400CC2901300310F70DF80DFF3E031DDC2995
:1003C40071087302031DE82970087202031CEB29EB
:1003D400EC29F3297008F2027108031CF303F302F9
:1003E400771401300310F10CF00CFF3E031DF429C7
:1003F4000130F502031DFF29002ADB2976080319C1
:10040400042A052A0A2AF709F809F70A0319F80A37
:100414007808F1007708F000080083120313AC0099
:100424002130A700BB2A25302B0603191A2A1B2AC0
:10043400252A2C0884002B08831780000130A30090
:100444002308AC07BB2AA6012C2AC030A30023082A
:10045400A604462A0130A007FF30200784000A12B0
:100464008A150A200A128A11AB00A300A4012408E9
:10047400003A03193E2ABB2A2308003A0319CB2A5F
:10048400753A0319272ABB2A270884008313000816
:10049400A800840A0008A9000230A3002308A707C3
:1004A400AB01AB0A2B08A3002307013E84000A1208
:1004B4008A150A200A128A11A4000A128A150A202F
:1004C4000A128A11A50025082902031D6B2A240893
:1004D400280203186E2A6F2A702A7A2A0130A30090
:1004E4002308AB0705302B06031D792A7A2A542AE0
:1004F4002B08AA00B22A0A30F8000030F9002A08B2
:10050400A3002307013E84000A128A150A200A1256
:100514008A11F0000A128A150A200A128A11F100BF
:100524002908F3002808F2000A128A1576270A120D
:100534008A117108FB007008FA000A128A15FA265B
:100544000A128A117808303E83120313AB002C0878
:1005540084002B08831780000130A3002308AC0714
:10056400FF30A3002308AA072A0A031DBA2ABB2ABC
:100574007D2A0130A007FF30200784000A128A1563
:100584000A200A128A11AB002B08031DCA2ACB2A9F
:10059400152A2C0884008317800108000A128A1186
:1005A4000A200A128A110A128A15E7250A128A11E8
:1005B400F401F40A01300A128A15BA270A128A11C0
:1005C4000B30F5008030F6000A128A1534270A121F
:1005D4008A110930F40001300A128A15BA270A1266
:1005E4008A110D30F5008030F6000A128A1534277E
:1005F4000A128A110C30F40001300A128A15BA2743
:100604000A128A110D30F5008030F6000A128A159C
:1006140034270A128A110930F40002300A128A15AA
:10062400BA270A128A111230F5008030F6000A1235
:100634008A1534270A128A110C30F40002300A1287
:100644008A15BA270A128A111230F5008030F60092
:100654000A128A1534270A128A110A128A15CB251E
:100664000A128A111130F0000030F1000A128A15C2
:10067400DD250A128A110030F000F1000A128A15F1
:100684005F260A128A11700883160317E7000A12FC
:100694008A15D4250A128A11033083120313AF007A
:1006A4000830AE007630AD00AD0B562BAE0B562B9A
:1006B400AF0B562B00006430F0000030F1008316BD
:1006C4000317670883120313AD00AE012D08F2006F
:1006D4002E08F3000A128A11A8210A128A1170083E
:1006E40083160317D3000A30F9000030FA000A30E9
:1006F400F0000030F100670883120313AD00AE016F
:100704002D08F2002E08F3000A128A11A8210A12F9
:100714008A117108FC007008FB000A128A112F204C
:100724000A128A11790883160317D2000A30F900D5
:100734000030FA00670883120313AD00AE012D08E0
:10074400FB002E08FC000A128A112F200A128A11BB
:10075400790883160317D1000F3083120313A00006
:1007640083160317530883120313AD00AE012D083B
:10077400A1002E08A200BD300A128A110F220A120B
:100784008A11F401F40A02300A128A15BA270A12ED
:100794008A11BD30F5000130F6000A128A1534279B
:1007A4000A128A110F3083120313A0008316031751
:1007B400520883120313AD00AE012D08A1002E08C8
:1007C400A200BD300A128A110F220A128A110230C5
:1007D400F40002300A128A15BA270A128A11BD30AF
:1007E400F5000130F6000A128A1534270A128A111C
:1007F4000F3083120313A0008316031751088312CA
:100804000313AD00AE012D08A1002E08A200BD30D7
:100814000A128A110F220A128A110330F4000230DC
:100824000A128A15BA270A128A11BD30F50001305E
:10083400F6000A128A1534270A128A1100300A12A5
:100844008A118A200A128A1183160317E2000A30D9
:10085400F9000030FA000A30F0000030F1006208BC
:1008640083120313AD00AE012D08F2002E08F3002D
:100874000A128A11A8210A128A117108FC00700850
:10088400FB000A128A112F200A128A117908831692
:100894000317D5000A30F9000030FA006208831209
:1008A4000313AD00AE012D08FB002E08FC000A1254
:1008B4008A112F200A128A11790883160317D4008B
:1008C4000F3083120313A0008316031755088312F5
:1008D4000313AD00AE012D08A1002E08A200903034
:1008E4000A128A110F220A128A110D30F400013003
:1008F4000A128A15BA270A128A119030F5000130BB
:10090400F6000A128A1534270A128A110F3083124C
:100914000313A00083160317540883120313AD00B6
:10092400AE012D08A1002E08A20090300A128A11EF
:100934000F220A128A110E30F40001300A128A15AD
:10094400BA270A128A119030F5000130F6000A1213
:100954008A1534270A128A1101300A128A118A2050
:100964000A128A1183160317E3000A30F9000030D3
:10097400FA000A30F0000030F10063088312031318
:10098400AD00AE012D08F2002E08F3000A128A1100
:10099400A8210A128A117108FC007008FB000A12CF
:1009A4008A112F200A128A11790883160317D70097
:1009B4000A30F9000030FA00630883120313AD0013
:1009C400AE012D08FB002E08FC000A128A112F200C
:1009D4000A128A11790883160317D6000F3083127E
:1009E4000313A00083160317570883120313AD00E3
:1009F400AE012D08A1002E08A20099300A128A1116
:100A04000F220A128A110A30F40001300A128A15E0
:100A1400BA270A128A119930F5000130F6000A1239
:100A24008A1534270A128A110F3083120313A00087
:100A340083160317560883120313AD00AE012D0865
:100A4400A1002E08A20099300A128A110F220A125C
:100A54008A110B30F40001300A128A15BA270A12DF
:100A64008A119930F5000130F6000A128A153427EC
:100A74000A128A1102300A128A118A200A128A1171
:100A840083160317E4000A30F9000030FA000A3034
:100A9400F0000030F100640883120313AD00AE01CE
:100AA4002D08F2002E08F3000A128A11A8210A1256
:100AB4008A117108FC007008FB000A128A112F20A9
:100AC4000A128A11790883160317D9000A30F9002B
:100AD4000030FA00640883120313AD00AE012D0840
:100AE400FB002E08FC000A128A112F200A128A1118
:100AF400790883160317D8000F3083120313A0005C
:100B040083160317590883120313AD00AE012D0891
:100B1400A1002E08A200A2300A128A110F220A1282
:100B24008A110730F40001300A128A15BA270A1212
:100B34008A11A230F5000130F6000A128A15342712
:100B44000A128A110F3083120313A00083160317AD
:100B5400580883120313AD00AE012D08A1002E081E
:100B6400A200A2300A128A110F220A128A11083036
:100B7400F40001300A128A15BA270A128A11A23027
:100B8400F5000130F6000A128A1534270A128A1178
:100B940003300A128A118A200A128A118316031753
:100BA400E5000A30F9000030FA000A30F0000030A5
:100BB400F100650883120313AD00AE012D08F200A5
:100BC4002E08F3000A128A11A8210A128A11710848
:100BD400FC007008FB000A128A112F200A128A11E5
:100BE400790883160317DB000A30F9000030FA0095
:100BF400650883120313AD00AE012D08FB002E0817
:100C0400FC000A128A112F200A128A11790883160D
:100C14000317DA000F3083120313A000831603179F
:100C24005B0883120313AD00AE012D08A1002E084A
:100C3400A200AB300A128A110F220A128A1107305D
:100C4400F40002300A128A15BA270A128A11AB304C
:100C5400F5000130F6000A128A1534270A128A11A7
:100C64000F3083120313A000831603175A0883124C
:100C74000313AD00AE012D08A1002E08A200AB3075
:100C84000A128A110F220A128A110830F400023063
:100C94000A128A15BA270A128A11AB30F5000130FC
:100CA400F6000A128A1534270A128A1104300A122D
:100CB4008A118A200A128A1183160317E6000A3061
:100CC400F9000030FA000A30F0000030F100660844
:100CD40083120313AD00AE012D08F2002E08F300B9
:100CE4000A128A11A8210A128A117108FC007008DC
:100CF400FB000A128A112F200A128A11790883161E
:100D04000317DD000A30F9000030FA006608831288
:100D14000313AD00AE012D08FB002E08FC000A12DF
:100D24008A112F200A128A11790883160317DC000E
:100D34000F3083120313A000831603175D08831278
:100D44000313AD00AE012D08A1002E08A200B4309B
:100D54000A128A110F220A128A110A30F400023090
:100D64000A128A15BA270A128A11B430F500013022
:100D7400F6000A128A1534270A128A110F308312D8
:100D84000313A000831603175C0883120313AD003A
:100D9400AE012D08A1002E08A200B4300A128A1157
:100DA4000F220A128A110B30F40002300A128A153B
:100DB400BA270A128A11B430F5000130F6000A127B
:100DC4008A1534270A128A1105300A128A118A20D8
:100DD4000A128A1183160317E8000230E1000A3070
:100DE400F0000030F100680883120313AD00AE0177
:100DF4002D08F2002E08F3000A128A11A8210A1203
:100E04008A11710883160317D0007008CF000A30C6
:100E1400F9000030FA000A30F0000030F100500808
:100E2400F3004F08F2000A128A11A8210A128A114B
:100E34007108FC007008FB000A128A112F200A12A4
:100E44008A11790883160317E0000A30F90000308C
:100E5400FA000A30F0000030F1006808831203132E
:100E6400AD00AE012D08F2002E08F3000A128A111B
:100E7400A8210A128A117108FC007008FB000A12EA
:100E84008A112F200A128A11790883160317DF00AA
:100E94000A30F9000030FA00680883120313AD0029
:100EA400AE012D08FB002E08FC000A128A112F2027
:100EB4000A128A11790883160317DE000F30831291
:100EC4000313A00083160317610883120313AD00F4
:100ED400AE012D08A1002E08A200C6300A128A1104
:100EE4000F220A128A110D30F40002300A128A15F8
:100EF400BA270A128A11C630F5000130F6000A1228
:100F04008A1534270A128A110F3083120313A000A2
:100F140083160317600883120313AD00AE012D0876
:100F2400A1002E08A200C6300A128A110F220A124A
:100F34008A110E30F40002300A128A15BA270A12F6
:100F44008A11C630F5000130F6000A128A153427DA
:100F54000A128A110F3083120313A0008316031799
:100F64005F0883120313AD00AE012D08A1002E0803
:100F7400A200C6300A128A110F220A128A110F30F7
:100F8400F40002300A128A15BA270A128A11C630EE
:100F9400F5000130F6000A128A1534270A128A1164
:100FA4000F3083120313A000831603175E08831205
:100FB4000313AD00AE012D08A1002E08A200C63017
:100FC4000A128A110F220A128A111030F400023018
:100FD4000A128A15BA270A128A11C630F50001309E
:100FE400F6000A128A1534270A128A112F2B0A12C4
:100FF4008A11002883010A128A11D02AFF1B0A28A9
:1010040083137F1883170008840A0319FF0A080052
:1010140008308A000408840A82070034013400344A
:101024000A34003464340034E8340334103427348C
:10103400533431343A3400342534753400342F3485
:02104400003476
:101B84000A128A15F4250A128A158316031391146E
:101B940008000A128A15F4250A128A1583160313FB
:101BA400111408000A128A15F4250A128A158316DC
:101BB4000313111508000A128A15F4250A128A154E
:101BC4007008831203139300080000300A128A1568
:101BD40023260A128A1501300A128A1523260A12AC
:101BE4008A150800831603131419F92DFA2DF42D00
:101BF40011081F39031DFF2D002EF42D0800F100DC
:101C04007108F000F00E831603130F0870068F3965
:101C140070068F000F140800F300F201731C132EDA
:101C2400142E182E7008F1007108F2070310F00D3D
:101C34000310F30C7308031D202E212E102E72089E
:101C44000800F30083120313081173080A128A159B
:101C54003D260A128A158312031388150B30F200ED
:101C64006230F100F10B342EF20B342E000083129B
:101C7400031388110800F000701C412E422E462EDA
:101C8400831203130816492E831203130812F01C3F
:101C94004C2E4D2E4F2E8816502E8812701D532E0A
:101CA400542E562E0817572E0813F01D5A2E5B2E4D
:101CB4005D2E88175E2E881308000A128A15F425F3
:101CC4000A128A158316031391150A128A15F4252C
:101CD4000A128A15831203131308F200F30172081F
:101CE400F4007308F5000A128A15F4250A128A15FD
:101CF40070037104031D7F2E802E842E831603131C
:101D04009112872E83160313911611167508F1008C
:101D14007408F0000800F40074080F39F200740825
:101D2400F039F3008312031308157308F10004302B
:101D34000310F10CFF3E031D9A2E71080A128A1536
:101D44003D260A128A158312031388151A30F100EE
:101D5400F10BAA2E000083120313881172080A12D1
:101D64008A153D260A128A158312031388151A3020
:101D7400F100F10BBB2E000083120313881108003D
:101D840028308312031394008316031391018312E2
:101D940003132008A4002108A5002208A600230894
:101DA400A70002300310A40DA50DA60DA70DFF3E3C
:101DB400031DD42E2708F3002608F2002508F1009D
:101DC4002408F0000030F7007A30F6001230F500F5
:101DD4000030F4000A128A1142210A128A1570088E
:101DE400FF3E83160313930094018715071608001A
:101DF400780879040319FF2E002F2F2FFD01FD0A07
:101E04000E2F01300310F80DF90DFF3E031D042FB2
:101E14000130FC007C08FD07F91F112F122F032F3E
:101E240079087B02031D182F78087A02031C1B2FE4
:101E34001C2F222F7808FA027908031CFB03FB02EB
:101E440001300310F90CF80CFF3E031D232F013061
:101E5400FD02031D2E2F2F2F122F7B08F9007A0865
:101E6400F8000800FA01FB01592F7A087507F800F9
:101E74007608F7000318F70AFA1F412FF7037708CB
:101E8400F900790883120313FF00780884000A120A
:101E94008A1500200A128A150A128A158D260A123A
:101EA4008A150130FA070318FB0A0030FB077A0889
:101EB4007507F8007608F7000318F70AFA1F632F6E
:101EC400F7037708F900790883120313FF007808F1
:101ED40084000A128A1500200A128A15003A031D8A
:101EE400742F752F372F0800F501F601700871045F
:101EF40003197D2F7E2FB52FF701F70A8C2F0130A0
:101F04000310F00DF10DFF3E031D822F0130F4008C
:101F14007408F707F11F8F2F902F812F01300310C2
:101F2400F50DF60DFF3E031D912F71087302031D7D
:101F34009D2F70087202031CA02FA12FA82F7008D8
:101F4400F2027108031CF303F30275140130031049
:101F5400F10CF00CFF3E031DA92F0130F702031D05
:101F6400B42FB52F902F7608F1007508F000080003
:101F7400F6007603031DBF2FC02FDD2F74087F3EAC
:101F8400F9007908F50004300310F50CFF3E031D39
:101F9400C62F7508F70079080F39F80077080A1278
:101FA4008A1523260A128A1578080A128A15232606
:101FB4000A128A15FF2F02307606031DE22FE32F43
:101FC400FF2F7408BF3EF9007908F50004300310B0
:101FD400F50CFF3E031DE92F7508F70079080F394A
:101FE400F80077080A128A1523260A128A15780837
:0C1FF4000A128A1523260A128A1508001A
:08400000FF3FFF3FFF3FFF3FC0
:04400E00D420FF3F7C
:00000001FF
