:060000000A128A110C280F
:10000800FE00030EF1000A08F2000A128A11062CFB
:100018000A128A110F2883136330FD000D30FE0089
:100028009830FF00513084000A128A15AE250A1252
:100038008A11203084003A300A128A154E250A1295
:100048008A11FA0183010A128A112A280A128A15CA
:100058003C260A128A110A128A1571250A128A1177
:10006800F701F70A01300A128A11AA270A128A111F
:100078000B30F8008030F9000A128A1519270A1285
:100088008A1183120313300885000A128A155F2526
:100098000A128A111130F3000030F4000A128A1192
:1000A800F6270A128A110030F300F4000A128A15A2
:1000B8000E260A128A11730883120313AF000A125C
:1000C8008A1568250A128A11033083120313D00097
:1000D8000830CF007630CE00CE0B7028CF0B7028BA
:1000E800D00B702800006430F3000030F400831255
:1000F80003132F08CE00CF014E08F5004F08F60075
:100108000A128A1118260A128A1173088312031315
:10011800AC000A30BE000030BF000A30F3000030E7
:10012800F4002F08CE00CF014E08F5004F08F60066
:100138000A128A1118260A128A11740883120313E4
:10014800C1007308C0000A128A15A5270A128A116D
:10015800831203133E08AD000A30BE000030BF0012
:100168002F08CE00CF014E08C0004F08C1000A1268
:100178008A15A5270A128A11831203133E08AE00B6
:100188000F30C1002C08CE00CF014E08C2004F0826
:10019800C30031300A128A11E7240A128A11F701C2
:1001A800F70A02300A128A11AA270A128A11313074
:1001B800F8000030F9000A128A1519270A128A1164
:1001C8000F3083120313C1002D08CE00CF014E0853
:1001D800C2004F08C30031300A128A11E7240A12FC
:1001E8008A110230F70002300A128A11AA270A126D
:1001F8008A113130F8000030F9000A128A151927DF
:100208000A128A110F3083120313C1002E08CE0080
:10021800CF014E08C2004F08C30031300A128A11BC
:10022800E7240A128A110330F70002300A128A11F1
:10023800AA270A128A113130F8000030F9000A1290
:100248008A1519270A128A11831203133008031911
:100258002E292F29A72A2508CE00CF014E08C40031
:100268004F08C50000300A128A11AA250A128A11FD
:10027800831203132408CE00CF014E08C4004F0890
:10028800C50001300A128A11AA250A128A1183129E
:1002980003132308CE00CF014E08C4004F08C50041
:1002A80002300A128A11AA250A128A11831203132C
:1002B8002208CE00CF014E08C4004F08C500033005
:1002C8000A128A11AA250A128A1183120313210815
:1002D800CE00CF014E08C4004F08C50004300A12F2
:1002E8008A11AA250A128A11831203132008CE0044
:1002F800CF014E08C4004F08C50005300A128A1104
:10030800AA250A128A110A3083120313BE0000308C
:10031800BF002508CE00CF014E08C0004F08C1001D
:100328000A128A15A5270A128A11831203133E0896
:10033800303EE2000A30F3000030F4002508CE0019
:10034800CF014E08F5004F08F6000A128A11182648
:100358000A128A117308303E83120313E1000A302F
:10036800BE000030BF002408CE00CF014E08C000F8
:100378004F08C1000A128A15A5270A128A1183128A
:1003880003133E08303EDF000A30F3000030F4006B
:100398002408CE00CF014E08F5004F08F6000A12D7
:1003A8008A1118260A128A117308303E8312031321
:1003B800DE000A30BE000030BF002308CE00CF01A7
:1003C8004E08C0004F08C1000A128A15A5270A1254
:1003D8008A11831203133E08303EDC000A30F30012
:1003E8000030F4002308CE00CF014E08F5004F0876
:1003F800F6000A128A1118260A128A117308303E6A
:1004080083120313DB000A30BE000030BF0020084F
:10041800CE00CF014E08C0004F08C1000A128A154D
:10042800A5270A128A11831203133E08303EDA0008
:100438000A30F3000030F4002008CE00CF014E0847
:10044800F5004F08F6000A128A1118260A128A11B6
:100458007308303E83120313D9000A30BE000030FF
:10046800BF002108CE00CF014E08C0004F08C100D0
:100478000A128A15A5270A128A11831203133E0845
:10048800303ED5000A30F3000030F4002108CE00D9
:10049800CF014E08F5004F08F6000A128A111826F7
:1004A8000A128A117308303E83120313D4000A30EB
:1004B800BE000030BF002208CE00CF014E08C000A9
:1004C8004F08C1000A128A15A5270A128A11831239
:1004D80003133E08303ED2000A30F3000030F40027
:1004E8002208CE00CF014E08F5004F08F6000A1288
:1004F8008A1118260A128A117308303E83120313D0
:10050800D1000730F70001300A128A11AA270A120F
:100518008A115B30F8000030F9000A128A15192791
:100528000A128A110730F70002300A128A11AA2724
:100538000A128A115130F8000030F9000A128A159F
:1005480019270A128A11831203133008031DAD2AD2
:10055800AE2A452800300A128A11E9260A128A11A1
:1005680083120313AB0001300A128A11E9260A121A
:100578008A1183120313AA0002300A128A11E9268B
:100588000A128A1183120313A90003300A128A116E
:10059800E9260A128A1183120313A80004300A12EA
:1005A8008A11E9260A128A1183120313A70005305B
:1005B8000A128A11E9260A128A1183120313A60065
:1005C8000A30BE000030BF002B08CE00CF014E0815
:1005D800C0004F08C1000A128A15A5270A128A11FD
:1005E800831203133E08303EE2000A30F300003065
:1005F800F4002B08CE00CF014E08F5004F08F60096
:100608000A128A1118260A128A117308303E8312B8
:100618000313E1000A30BE000030BF002A08CE00F4
:10062800CF014E08C0004F08C1000A128A15A5273D
:100638000A128A11831203133E08303EDF000A3083
:10064800F3000030F4002A08CE00CF014E08F50070
:100658004F08F6000A128A1118260A128A1173081E
:10066800303E83120313DE000A30BE000030BF00A4
:100678002908CE00CF014E08C0004F08C1000A1259
:100688008A15A5270A128A11831203133E08303EE1
:10069800DC000A30F3000030F4002908CE00CF0156
:1006A8004E08F5004F08F6000A128A1118260A1299
:1006B8008A117308303E83120313DB000A30BE0030
:1006C8000030BF002608CE00CF014E08C0004F08FA
:1006D800C1000A128A15A5270A128A118312031368
:1006E8003E08303EDA000A30F3000030F4002608F5
:1006F800CE00CF014E08F5004F08F6000A128A1105
:1007080018260A128A117308303E83120313D9007F
:100718000A30BE000030BF002708CE00CF014E08C7
:10072800C0004F08C1000A128A15A5270A128A11AB
:10073800831203133E08303ED5000A30F300003020
:10074800F4002708CE00CF014E08F5004F08F60048
:100758000A128A1118260A128A117308303E831267
:100768000313D4000A30BE000030BF002808CE00B2
:10077800CF014E08C0004F08C1000A128A15A527EC
:100788000A128A11831203133E08303ED2000A303F
:10079800F3000030F4002808CE00CF014E08F50021
:1007A8004F08F6000A128A1118260A128A117308CD
:1007B800303E83120313D1000730F70001300A12CC
:1007C8008A11AA270A128A115B30F8000030F90052
:1007D8000A128A1519270A128A110730F7000230FF
:1007E8000A128A11AA270A128A115130F800003019
:1007F800F9000A128A1519270A128A1145280A12BD
:100808008A110C280B1C092C0A2CE02C83120313C8
:1008180006180F2C102C1B2C0130F0007008B007A4
:1008280007303006031D192C1A2C1B2CB00130037D
:10083800031D1F2C202C3C2C8618232C242C2F2CF9
:100848000130F0007008A5073C302506031D2D2C4B
:100858002E2C2F2CA5010619322C332C3C2C0130C0
:10086800A5022508031D392C3A2C3C2C3B30A50049
:1008780002303006031D412C422C5E2C8618452C74
:10088800462C512C0130F0007008A4073C30240697
:10089800031D4F2C502C512CA4010619542C552CF7
:1008A8005E2C0130A4022408031D5B2C5C2C5E2CFA
:1008B8003B30A40003303006031D632C642C802CCD
:1008C8008618672C682C732C0130F0007008A30779
:1008D8003C302306031D712C722C732CA3010619BE
:1008E800762C772C802C0130A3022308031D7D2C45
:1008F8007E2C802C3B30A30004303006031D852C51
:10090800862CA22C8618892C8A2C952C0130F00074
:100918007008A2071F302206031D932C942C952CD7
:10092800A2010619982C992CA22C0130A2022208A7
:10093800031D9F2CA02CA22C1F30A20005303006CE
:10094800031DA72CA82CC42C8618AB2CAC2CB72CB8
:100958000130F0007008A1070D302106031DB52CE9
:10096800B62CB72CA1010619BA2CBB2CC42C01300B
:10097800A1022108031DC12CC22CC42C0C30A100DB
:1009880006303006031DC92CCA2CDF2C8618CD2C46
:10099800CE2CD22C0130F0007008A0070619D52CF7
:1009A800D62CDF2C0130A0022008031DDC2CDD2C06
:1009B800DF2C0F30A0000B1072088A00710E830024
:1009C800FE0E7E0E090083120313CC004230C800CD
:1009D800952D25304D060319F22CF32CFD2C4C08CF
:1009E80084004D08831380000130C4004408CC07FC
:1009F800952DC701042DC030C4004408C7041E2D1E
:100A08000130C107FF30410784000A128A150A2005
:100A18000A128A11CD00C400C5014508003A03191D
:100A2800162D952D4408003A0319A52D753A03197A
:100A3800FF2C952D4808840083130008C900840AF8
:100A48000008CA000230C4004408C807CD01CD0A16
:100A58004D08C4004407013E84000A128A150A2082
:100A68000A128A11C5000A128A150A200A128A1166
:100A7800C60046084A02031D432D450849020318CB
:100A8800462D472D482D522D0130C4004408CD076E
:100A980005304D06031D512D522D2C2D4D08CB0030
:100AA8008C2D0A30BD000030BE004B08C40044073E
:100AB800013E84000A128A150A200A128A11F300DC
:100AC8000A128A150A200A128A11F4004A08F60046
:100AD8004908F5000A128A155F270A128A11740854
:100AE80083120313C0007308BF000A128A15DD269B
:100AF8000A128A11831203133D08303ECD004C08B8
:100B080084004D08831380000130C4004408CC07DA
:100B1800FF30C4004408CB074B0A031D942D952DC4
:100B2800552D0130C107FF30410784000A128A158C
:100B38000A200A128A11CD004D08031DA42DA52DE7
:100B4800ED2C4C088400831380010800F9000A305A
:100B5800F3000030F400831203134508F60044083C
:100B6800F5000A128A1118260A128A1173088312CC
:100B78000313C6007408C700C60EC70EF030C705B9
:100B880046080F39C704F030C6050A30BE000030E9
:100B9800BF004508C1004408C0000A128A15A527ED
:100BA8000A128A11831203133E084607C4003F083D
:100BB80003183F0A4707C5000A128A155F250A125B
:100BC8008A11D030F3000030F4000A128A11F62797
:100BD8000A128A11790883120313C600C70146084E
:100BE800F3004708F4000A128A11F6270A128A113C
:100BF800831203134508F4004408F3000A128A110B
:100C0800F6270A128A110A128A1568250A128A1109
:100C18001A3083120313C700F730C600C60B122E12
:100C2800C70B122E172E080083120313BB01F41FE3
:100C38001E2E1F2E262EF309F409F30A0319F40AAF
:100C4800BB01BB0AF61F292E2A2E332EF509F609F9
:100C5800F50A0319F60A0130F7007708BB06BC014C
:100C6800BD017308740403193A2E3B2E722EBA0183
:100C7800BA0A492E01300310F30DF40DFF3E031D8F
:100C88003F2E0130F7007708BA07F41F4C2E4D2E7F
:100C98003E2E01300310BC0DBD0DFF3E031D4E2E30
:100CA80074087602031D5A2E73087502031C5D2E04
:100CB8005E2E652E7308F5027408031CF603F6020F
:100CC8003C1401300310F40CF30CFF3E031D662E98
:100CD8000130BA02031D712E722E4D2E3B080319E6
:100CE800762E772E7C2EBC09BD09BC0A0319BD0AD5
:100CF8003D08F4003C08F30008000030F70000301D
:100D0800F6000030F5000030F400831203133D08AC
:100D18003C043B043A040319922E932EE02EF8016A
:100D2800F80AA32E0130F3000310BA0DBB0DBC0D59
:100D3800BD0DF30B982E0130F3007308F807BD1FA3
:100D4800A62EA72E962E0130F3000310F40DF50DF4
:100D5800F60DF70DF30BA92E3D084102031DBE2E1B
:100D68003C084002031DBE2E3B083F02031DBE2E59
:100D78003A083E02031CC12EC22ED12E3A08BE02EA
:100D88003B08031C3B0FBF023C08031C3C0FC0027E
:100D98003D08031C3D0FC102741401300310BD0C43
:100DA800BC0CBB0CBA0CFF3E031DD22E0130F8025E
:100DB800031DDF2EE02EA72E7708BD007608BC00A5
:100DC8007508BB007408BA00080083120313BC003E
:100DD8000A128A155F250A128A11D030F3000030F2
:100DE800F4000A128A11F6270A128A1183120313D1
:100DF8003C08BA00BB013A08F3003B08F4000A12A9
:100E08008A11F6270A128A110A128A1556250A1219
:100E18008A11D130F3000030F4000A128A11F62743
:100E28000A128A110030F300F4000A128A150E26FD
:100E38000A128A11730883120313BD000A128A1555
:100E480068250A128A111A3083120313BB00F7307F
:100E5800BA00BA0B2D2FBB0B2D2F322F0F30831258
:100E680003133D05BA000A30F3003D08BB00043007
:100E78000310BB0CFF3E031D3C2F3B080A128A15CA
:100E8800BD250A128A11831203133A07BD003D08D3
:100E9800080000300A128A15EC250A128A1134302B
:100EA800F800F130F700F70B572FF80B572F5C2F8E
:100EB80003300A128A15D2250A128A110D30F80059
:100EC800FB30F700F70B662FF80B662F6B2F0330FC
:100ED8000A128A15D2250A128A111D30F80091309B
:100EE800F700F70B752FF80B752F03300A128A15C8
:100EF800D2250A128A1102300A128A15D2250A123C
:100F08008A1102300A128A15D2250A128A1108306B
:100F18000A128A15D2250A128A1100300A128A1575
:100F2800D2250A128A110C300A128A15D2250A1201
:100F38008A1100300A128A15D2250A128A1106303F
:100F48000A128A15D2250A128A110800831203137D
:100F5800BA003A03031DB12FB22FD12F77087F3E75
:100F6800BD003D08F80004300310F80CFF3E031DD7
:100F7800B82F7808BB003D080F39BC003B080A129F
:100F88008A15D2250A128A11831203133C080A1201
:100F98008A15D2250A128A11F52F02303A06031D46
:100FA800D62FD72FF52F7708BF3EBD003D08F80094
:100FB80004300310F80CFF3E031DDD2F7808BB003A
:100FC8003D080F39BC003B080A128A15D2250A12BF
:100FD8008A11831203133C080A128A15D2250A12B1
:100FE8008A1108000A128A157E250A128A117308C6
:100FF8008312031393000800FF1B0A2883137F182A
:1010080083170008840A0319FF0A080008308A00B9
:101018000408840A82070034013400340A34003496
:1010280064340034E834033410342734533431340E
:0A1038003A340034253475340034D6
:101A9C0064008001840A04060319003404064F2DE7
:101AAC000A128A157E250A128A15831603139114BD
:101ABC0008000A128A157E250A128A15831603134A
:101ACC00111408000A128A157E250A128A1583162B
:101ADC0003131115080000300A128A15D2250A12B8
:101AEC008A1501300A128A15D2250A128A150800A5
:101AFC00831603131419832D842D7E2D11081F3981
:101B0C00031D892D8A2D7E2D0800F4007408F30026
:101B1C00F30E831603130F0873068F3973068F00A9
:101B2C000F140800303431342F34303431342F3426
:101B3C003234303430343034303430343A3430346D
:101B4C0030343A34303430347E088A007F088200D6
:101B5C000A128A15AA250A128A158000840A04081A
:101B6C007D0603190034FF0A0319FE0AAE2DF60098
:101B7C00F501761CC22DC32DC72D7308F400740813
:101B8C00F5070310F30D0310F60C7608031DCF2D8B
:101B9C00D02DBF2D75080800F60083120313081111
:101BAC0076080A128A15EC250A128A158312031379
:101BBC0088150B30F5006230F400F40BE32DF50BB7
:101BCC00E32D00008312031388110800F300731C2B
:101BDC00F02DF12DF52D831203130816F82D831219
:101BEC0003130812F31CFB2DFC2DFE2D8816FF2D64
:101BFC008812731D022E032E052E0817062E0813AD
:101C0C00F31D092E0A2E0C2E88170D2E8813080092
:101C1C000A128A157E250A128A158316031391154A
:101C2C000A128A157E250A128A15831203131308C9
:101C3C00F500F6017508F7007608F8000A128A1507
:101C4C007E250A128A1573037404031D2E2E2F2E63
:101C5C00332E831603139112362E8316031391160B
:101C6C0011167808F4007708F300080083160317A0
:101C7C0088018901831603138501073086008801CA
:101C8C008113151495141515073096008312031340
:101C9C008501860188010030C5000130C400863002
:101CAC00C300A030C2000A128A15A3260A128A1594
:101CBC0007300A128A158B250A128A150A128A1104
:101CCC004D270A128A158B170B178B150B10080052
:101CDC00F70077080F39F5007708F039F600831212
:101CEC00031308157608F40004300310F40CFF3EBF
:101CFC00031D7B2E74080A128A15EC250A128A150C
:101D0C008312031388151A30F400F40B8B2E000089
:101D1C0083120313881175080A128A15EC250A120E
:101D2C008A158312031388151A30F400F40B9C2EB9
:101D3C000000831203138811080028308312031348
:101D4C009400831603139101831203134208C600F7
:101D5C004308C7004408C8004508C90002300310F6
:101D6C00C60DC70DC80DC90DFF3E031DB52E490884
:101D7C00BD004808BC004708BB004608BA0000304C
:101D8C00C1007A30C0001230BF000030BE000A1211
:101D9C008A1181260A128A15831203133A08FF3E10
:101DAC0083160313930094018715071608008312FA
:101DBC0003133D083E040319E42EE52E142FF901FC
:101DCC00F90AF32E01300310BD0DBE0DFF3E031DAD
:101DDC00E92E0130F8007808F907BE1FF62EF72E11
:101DEC00E82E3E084002031DFD2E3D083F02031C59
:101DFC00002F012F072F3D08BF023E08031CC00314
:101E0C00C00201300310BE0CBD0CFF3E031D082F99
:101E1C000130F902031D132F142FF72E4008BE00BA
:101E2C003F08BD00080083120313BD01BE01422F01
:101E3C003D087807BB007908BA000318BA0ABD1F21
:101E4C00282FBA03831203133A08BC003C08FF0086
:101E5C003B0884000A128A1500200A128A150A12FD
:101E6C008A156E260A128A15013083120313BD07D8
:101E7C000318BE0A0030BE073D087807BB0079087E
:101E8C00BA000318BA0ABD1F4C2FBA0383120313EE
:101E9C003A08BC003C08FF003B0884000A128A1573
:101EAC0000200A128A15003A031D5D2F5E2F1E2F8B
:101EBC00080083120313BB01BC01730874040319DB
:101ECC00682F692FA02FBA01BA0A772F013003109F
:101EDC00F30DF40DFF3E031D6D2F0130F700770855
:101EEC00BA07F41F7A2F7B2F6C2F01300310BB0D18
:101EFC00BC0DFF3E031D7C2F74087602031D882F3A
:101F0C0073087502031C8B2F8C2F932F7308F5020B
:101F1C007408031CF603F6023B1401300310F40C96
:101F2C00F30CFF3E031D942F0130BA02031D9F2FAB
:101F3C00A02F7B2F3C08F4003B08F3000800831211
:101F4C000313C301C11FAB2FAC2FB32FC009C109A1
:101F5C00C00A0319C10AC301C30ABF1FB62FB72F8A
:101F6C00BC2FBE09BF09BE0A0319BF0A3E083F04B5
:101F7C000319C12FC22FF12FC201C20AD02F013079
:101F8C000310BE0DBF0DFF3E031DC62F0130F80020
:101F9C007808C207BF1FD32FD42FC52F3F0841028B
:101FAC00031DDA2F3E084002031CDD2FDE2FE42F29
:101FBC003E08C0023F08031CC103C10201300310DC
:101FCC00BF0CBE0CFF3E031DE52F0130C202031DEA
:101FDC00F02FF12FD42F43080319F52FF62FFB2FD9
:101FEC00C009C109C00A0319C10A4108BF00400851
:041FFC00BE0008001B
:08400000FF3FFF3FFF3FFF3FC0
:04400E00D420FF3F7C
:00000001FF
