:060000000A128A110C280F
:10000800FE00030EF1000A08F2000A128A15702D8C
:100018000A128A110F28FA0183160317E9018301CE
:100028000A128A1117280A128A15DF250A128A115C
:100038000A128A151A250A128A11F701F70A0130DD
:100048000A128A11AF270A128A110B30F800803081
:10005800F9000A128A15BC260A128A110930F7001B
:1000680001300A128A11AF270A128A110D30F800DE
:100078008030F9000A128A15BC260A128A110C303F
:10008800F70001300A128A11AF270A128A110D30BF
:10009800F8008030F9000A128A15BC260A128A1163
:1000A8000930F70002300A128A11AF270A128A11A2
:1000B8001230F8008030F9000A128A15BC260A129C
:1000C8008A110C30F70002300A128A11AF270A127F
:1000D8008A111230F8008030F9000A128A15BC26FD
:1000E8000A128A11831603176908831203138500FD
:1000F8000A128A15FE240A128A111130F300003000
:10010800F4000A128A1510250A128A110030F30029
:10011800F4000A128A15B1250A128A117308831687
:100128000317E7000A128A1507250A128A110330F5
:1001380083120313B6000830B5007630B400B40B50
:10014800A328B50BA328B60BA32800006430F3003E
:100158000030F40083160317670883120313B400F2
:10016800B5013408F5003508F6000A128A1176261A
:100178000A128A11730883160317D3000A308312F0
:100188000313A4000030A5000A30F3000030F40087
:1001980083160317670883120313B400B5013408E4
:1001A800F5003508F6000A128A1176260A128A1115
:1001B800740883120313A7007308A6000A128A158D
:1001C80048270A128A118312031324088316031777
:1001D800D2000A3083120313A4000030A50083164E
:1001E8000317670883120313B400B5013408A60087
:1001F8003508A7000A128A1548270A128A1183129D
:100208000313240883160317D1000F308312031336
:10021800A70083160317530883120313B400B5010C
:100228003408A8003508A900BD300A128A11B32580
:100238000A128A11F701F70A02300A128A11AF2747
:100248000A128A11BD30F8000130F9000A128A1525
:10025800BC260A128A110F3083120313A7008316D3
:100268000317520883120313B400B5013408A80019
:100278003508A900BD300A128A11B3250A128A115D
:100288000230F70002300A128A11AF270A128A11C7
:10029800BD30F8000130F9000A128A15BC260A128E
:1002A8008A110F3083120313A7008316031751080E
:1002B80083120313B400B5013408A8003508A90057
:1002C800BD300A128A11B3250A128A110330F700C9
:1002D80002300A128A11AF270A128A11BD30F800BB
:1002E8000130F9000A128A15BC260A128A11003058
:1002F8000A128A1147270A128A1183160317E20085
:100308000A3083120313A4000030A5000A30F3005A
:100318000030F40083160317620883120313B40035
:10032800B5013408F5003508F6000A128A11762658
:100338000A128A11740883120313A7007308A6000F
:100348000A128A1548270A128A11831203132408ED
:1003580083160317D5000A3083120313A400003054
:10036800A50083160317620883120313B400B501AE
:100378003408A6003508A7000A128A1548270A1269
:100388008A1183120313240883160317D4000F302D
:1003980083120313A7008316031755088312031348
:1003A800B400B5013408A8003508A90090300A1235
:1003B8008A11B3250A128A110D30F70001300A128A
:1003C8008A11AF270A128A119030F8000130F9001B
:1003D8000A128A15BC260A128A110F3083120313D7
:1003E800A70083160317540883120313B400B5013A
:1003F8003408A8003508A90090300A128A11B325DC
:100408000A128A110E30F70001300A128A11AF273A
:100418000A128A119030F8000130F9000A128A1580
:10042800BC260A128A1101300A128A1147270A12B9
:100438008A1183160317E3000A3083120313A400FA
:100448000030A5000A30F3000030F40083160317CB
:10045800630883120313B400B5013408F5003508A6
:10046800F6000A128A1176260A128A117408831273
:100478000313A7007308A6000A128A1548270A1250
:100488008A1183120313240883160317D7000A302E
:1004980083120313A4000030A50083160317630812
:1004A80083120313B400B5013408A6003508A70069
:1004B8000A128A1548270A128A118312031324087C
:1004C80083160317D6000F3083120313A700831671
:1004D8000317570883120313B400B5013408A800A2
:1004E8003508A90099300A128A11B3250A128A110F
:1004F8000A30F70001300A128A11AF270A128A114E
:100508009930F8000130F9000A128A15BC260A123F
:100518008A110F3083120313A70083160317560896
:1005280083120313B400B5013408A8003508A900E4
:1005380099300A128A11B3250A128A110B30F70072
:1005480001300A128A11AF270A128A119930F8006D
:100558000130F9000A128A15BC260A128A110230E3
:100568000A128A1147270A128A1183160317E40010
:100578000A3083120313A4000030A5000A30F300E8
:100588000030F40083160317640883120313B400C1
:10059800B5013408F5003508F6000A128A117626E6
:1005A8000A128A11740883120313A7007308A6009D
:1005B8000A128A1548270A128A118312031324087B
:1005C80083160317D9000A3083120313A4000030DE
:1005D800A50083160317640883120313B400B5013A
:1005E8003408A6003508A7000A128A1548270A12F7
:1005F8008A1183120313240883160317D8000F30B7
:1006080083120313A70083160317590883120313D1
:10061800B400B5013408A8003508A900A2300A12B0
:100628008A11B3250A128A110730F70001300A121D
:100638008A11AF270A128A11A230F8000130F90096
:100648000A128A15BC260A128A110F308312031364
:10065800A70083160317580883120313B400B501C3
:100668003408A8003508A900A2300A128A11B32557
:100678000A128A110830F70001300A128A11AF27CE
:100688000A128A11A230F8000130F9000A128A15FC
:10069800BC260A128A1103300A128A1147270A1245
:1006A8008A1183160317E5000A3083120313A40086
:1006B8000030A5000A30F3000030F4008316031759
:1006C800650883120313B400B5013408F500350832
:1006D800F6000A128A1176260A128A117408831201
:1006E8000313A7007308A6000A128A1548270A12DE
:1006F8008A1183120313240883160317DB000A30B8
:1007080083120313A4000030A5008316031765089D
:1007180083120313B400B5013408A6003508A700F6
:100728000A128A1548270A128A1183120313240809
:1007380083160317DA000F3083120313A7008316FA
:1007480003175B0883120313B400B5013408A8002B
:100758003508A900AB300A128A11B3250A128A118A
:100768000730F70002300A128A11AF270A128A11DD
:10077800AB30F8000130F9000A128A15BC260A12BB
:100788008A110F3083120313A700831603175A0820
:1007980083120313B400B5013408A8003508A90072
:1007A800AB300A128A11B3250A128A110830F700F1
:1007B80002300A128A11AF270A128A11AB30F800E8
:1007C8000130F9000A128A15BC260A128A1104306F
:1007D8000A128A1147270A128A1183160317E6009C
:1007E8000A3083120313A4000030A5000A30F30076
:1007F8000030F40083160317660883120313B4004D
:10080800B5013408F5003508F6000A128A11762673
:100818000A128A11740883120313A7007308A6002A
:100828000A128A1548270A128A1183120313240808
:1008380083160317DD000A3083120313A400003067
:10084800A50083160317660883120313B400B501C5
:100858003408A6003508A7000A128A1548270A1284
:100868008A1183120313240883160317DC000F3040
:1008780083120313A700831603175D08831203135B
:10088800B400B5013408A8003508A900B4300A122C
:100898008A11B3250A128A110A30F70002300A12A7
:1008A8008A11AF270A128A11B430F8000130F90012
:1008B8000A128A15BC260A128A110F3083120313F2
:1008C800A700831603175C0883120313B400B5014D
:1008D8003408A8003508A900B4300A128A11B325D3
:1008E8000A128A110B30F70002300A128A11AF2758
:1008F8000A128A11B430F8000130F9000A128A1578
:10090800BC260A128A1105300A128A1147270A12D0
:100918008A1183160317E8000230E1000A30F30059
:100928000030F400680883120313B400B5013408DA
:10093800F5003508F6000A128A1176260A128A117D
:10094800740883160317D0007308CF000A30831287
:100958000313A4000030A5000A30F3000030F400AF
:10096800831603175008F6004F08F5000A128A117B
:1009780076260A128A11740883120313A7007308D3
:10098800A6000A128A1548270A128A11831203132D
:10099800240883160317E0000A3083120313A40007
:1009A8000030A5000A30F3000030F4008316031766
:1009B800680883120313B400B5013408F50035083C
:1009C800F6000A128A1176260A128A11740883120E
:1009D8000313A7007308A6000A128A1548270A12EB
:1009E8008A1183120313240883160317DF000A30C1
:1009F80083120313A4000030A500831603176808A8
:100A080083120313B400B5013408A6003508A70003
:100A18000A128A1548270A128A1183120313240816
:100A280083160317DE000F3083120313A700831603
:100A38000317610883120313B400B5013408A80032
:100A48003508A900C6300A128A11B3250A128A117C
:100A58000D30F70002300A128A11AF270A128A11E4
:100A6800C630F8000130F9000A128A15BC260A12AD
:100A78008A110F3083120313A70083160317600827
:100A880083120313B400B5013408A8003508A9007F
:100A9800C6300A128A11B3250A128A110E30F700DD
:100AA80002300A128A11AF270A128A11C630F800DA
:100AB8000130F9000A128A15BC260A128A110F3071
:100AC80083120313A700831603175F088312031307
:100AD800B400B5013408A8003508A900C6300A12C8
:100AE8008A11B3250A128A110F30F70002300A1250
:100AF8008A11AF270A128A11C630F8000130F900AE
:100B08000A128A15BC260A128A110F30831203139F
:100B1800A700831603175E0883120313B400B501F8
:100B28003408A8003508A900C6300A128A11B3256E
:100B38000A128A111030F70002300A128A11AF2700
:100B48000A128A11C630F8000130F9000A128A1513
:100B5800BC260A128A1176280A128A110C288312D6
:100B68000313B3002830AE00612E25303206031976
:100B7800BE2DBF2DC92D330884003208831780008D
:100B88000130AA002A08B307612EAD01D02DC0306C
:100B9800AA002A08AD04EA2D0130A707FF3027076D
:100BA80084000A128A150A200A128A11B200AA00C1
:100BB800AB012B08003A0319E22D612E2A08003AEE
:100BC8000319712E753A0319CB2D612E2E08840056
:100BD80083130008AF00840A0008B0000230AA009E
:100BE8002A08AE07B201B20A3208AA002A07013E53
:100BF80084000A128A150A200A128A11AB000A1206
:100C08008A150A200A128A11AC002C083002031D2A
:100C18000F2E2B082F020318122E132E142E1E2E01
:100C28000130AA002A08B20705303206031D1D2E1E
:100C38001E2EF82D3208B100582E0A30A3000030BD
:100C4800A4003108AA002A07013E84000A128A1566
:100C58000A200A128A11F3000A128A150A200A12B7
:100C68008A11F4003008F6002F08F5000A128A15D8
:100C780002270A128A11740883120313A600730844
:100C8800A5000A128A1580260A128A1183120313F4
:100C98002308303EB20033088400320883178000EE
:100CA8000130AA002A08B307FF30AA002A08B107B2
:100CB800310A031D602E612E212E0130A707FF3057
:100CC800270784000A128A150A200A128A11B2001C
:100CD8003208031D702E712EB92D33088400831736
:100CE8008001080083120313A101F41F7C2E7D2EBE
:100CF800842EF309F409F30A0319F40AA101A10ADD
:100D0800F61F872E882E912EF509F609F50A031984
:100D1800F60A0130F7007708A106A201A3017308BB
:100D280074040319982E992ED02EA001A00AA72E7C
:100D380001300310F30DF40DFF3E031D9D2E01300D
:100D4800F7007708A007F41FAA2EAB2E9C2E0130BF
:100D58000310A20DA30DFF3E031DAC2E74087602EE
:100D6800031DB82E73087502031CBB2EBC2EC32EA0
:100D78007308F5027408031CF603F6022214013006
:100D88000310F40CF30CFF3E031DC42E0130A00227
:100D9800031DCF2ED02EAB2E21080319D42ED52E0D
:100DA800DA2EA209A309A20A0319A30A2308F40048
:100DB8002208F30008000030F7000030F600003089
:100DC800F5000030F40083120313230822042104E1
:100DD80020040319F02EF12E3E2FF801F80A012FF6
:100DE8000130F3000310A00DA10DA20DA30DF30B0C
:100DF800F62E0130F3007308F807A31F042F052F00
:100E0800F42E0130F3000310F40DF50DF60DF70D77
:100E1800F30B072F23082702031D1C2F2208260285
:100E2800031D1C2F21082502031D1C2F2008240246
:100E3800031C1F2F202F2F2F2008A4022108031C7A
:100E4800210FA5022208031C220FA6022308031C57
:100E5800230FA702741401300310A30CA20CA10CD9
:100E6800A00CFF3E031D302F0130F802031D3D2F5B
:100E78003E2F052F7708A3007608A2007508A10069
:100E88007408A000080083120313A3000A128A152D
:100E9800FE240A128A11D030F3000030F4000A123E
:100EA8008A1510250A128A11831203132308A00039
:100EB800A1012008F3002108F4000A128A15102560
:100EC8000A128A110A128A15F5240A128A11D130D7
:100ED800F3000030F4000A128A1510250A128A114C
:100EE8000030F300F4000A128A15B1250A128A119B
:100EF800730883120313A4000A128A1507250A121D
:100F08008A11033083120313A2000830A10076303F
:100F1800A000A00B8D2FA10B8D2FA20B8D2F0000F1
:100F28000F30831203132405A0000A30F3002408AD
:100F3800A10004300310A10CFF3E031D9E2F2108C1
:100F48000A128A1541250A128A11831203132007EF
:100F5800A4002408080083120313A0002003031D23
:100F6800B62FB72FD62F77087F3EA3002308F800A7
:100F780004300310F80CFF3E031DBD2F7808A100B4
:100F880023080F39A20021080A128A1556250A12C9
:100F98008A118312031322080A128A1556250A1287
:100FA8008A11FA2F02302006031DDB2FDC2FFA2FBF
:100FB8007708BF3EA3002308F80004300310F80C9C
:100FC800FF3E031DE22F7808A10023080F39A20075
:100FD80021080A128A1556250A128A118312031348
:0E0FE80022080A128A1556250A128A110800DC
:10100000FF1B0A2883137F1883170008840A03191B
:10101000FF0A080008308A000408840A82070034A6
:10102000013400340A34003464340034E8340334C6
:1010300010342734533431343A3400342534753481
:0610400000342F340034DF
:1019EA000A128A1527250A128A15831603139114D7
:1019FA0008000A128A1527250A128A158316031364
:101A0A00111408000A128A1527250A128A15831644
:101A1A000313111508000A128A1527250A128A15B6
:101A2A007308831203139300080000300A128A1500
:101A3A0056250A128A1501300A128A1556250A12E3
:101A4A008A1508008316031314192C2D2D2D272D02
:101A5A0011081F39031D322D332D272D0800F400DC
:101A6A007408F300F30E831603130F0873068F39F5
:101A7A0073068F000F140800F600F501761C462D38
:101A8A00472D4B2D7308F4007408F5070310F30D66
:101A9A000310F60C7608031D532D542D432D75089B
:101AAA000800F60083120313081176080A128A1531
:101ABA008F250A128A158312031388150B30F50035
:101ACA006230F400F40B672DF50B672D00008312CA
:101ADA000313881108000B1C732D742D882D831293
:101AEA0003130618792D7A2D872D0130F00070081E
:101AFA0083160317E90706306906031D852D862D0F
:101B0A00872DE9010B1072088A00710E8300FE0E00
:101B1A007E0E0900F300731C932D942D982D8312C9
:101B2A00031308169B2D831203130812F31C9E2D10
:101B3A009F2DA12D8816A22D8812731DA52DA62DC5
:101B4A00A82D0817A92D0813F31DAC2DAD2DAF2D07
:101B5A008817B02D881308000A128A1527250A1239
:101B6A008A158316031391150A128A1527250A1254
:101B7A008A15831203131308F500F6017508F70096
:101B8A007608F8000A128A1527250A128A1573039D
:101B9A007404031DD12DD22DD62D83160313911251
:101BAA00D92D83160313911611167808F4007708B5
:101BBA00F3000800831603178801890183160313AB
:101BCA0085010730860088018113151495141515AF
:101BDA0007309600831203138501860188010030BD
:101BEA00AB000130AA008630A900A030A8000A1272
:101BFA008A1546260A128A1507300A128A153425CA
:101C0A000A128A150A128A15A3270A128A158B172D
:101C1A000B178B150B100800F70077080F39F50022
:101C2A007708F039F6008312031308157608F400D2
:101C3A0004300310F40CFF3E031D1E2E74080A1212
:101C4A008A158F250A128A158312031388151A30EA
:101C5A00F400F40B2E2E000083120313881175086A
:101C6A000A128A158F250A128A15831203138815F8
:101C7A001A30F400F40B3F2E00008312031388116C
:101C8A00080028308312031394008316031391016A
:101C9A00831203132808AC002908AD002A08AE00F5
:101CAA002B08AF0002300310AC0DAD0DAE0DAF0D19
:101CBA00FF3E031D582E2F08A3002E08A2002D0850
:101CCA00A1002C08A0000030A7007A30A60012302C
:101CDA00A5000030A4000A128A11DF260A128A150A
:101CEA00831203132008FF3E831603139300940103
:101CFA0087150716080083120313230824040319FF
:101D0A00872E882EB72EF901F90A962E0130031074
:101D1A00A30DA40DFF3E031D8C2E0130F800780898
:101D2A00F907A41F992E9A2E8B2E24082602031D2A
:101D3A00A02E23082502031CA32EA42EAA2E2308B4
:101D4A00A5022408031CA603A60201300310A40C52
:101D5A00A30CFF3E031DAB2E0130F902031DB62E64
:101D6A00B72E9A2E2608A4002508A300080083127D
:101D7A000313A301A401E52E23087807A10079081B
:101D8A00A0000318A00AA31FCB2EA00383120313DB
:101D9A002008A2002208FF00210884000A128A15DE
:101DAA0000200A128A150A128A1511260A128A15A1
:101DBA00013083120313A3070318A40A0030A407EF
:101DCA0023087807A1007908A0000318A00AA31F16
:101DDA00EF2EA003831203132008A2002208FF009B
:101DEA00210884000A128A1500200A128A15003A6C
:101DFA00031D002F012FC12E080083120313A10116
:101E0A00A2017308740403190B2F0C2F432FA0018E
:101E1A00A00A1A2F01300310F30DF40DFF3E031D23
:101E2A00102F0130F7007708A007F41F1D2F1E2F6F
:101E3A000F2F01300310A10DA20DFF3E031D1F2F0E
:101E4A0074087602031D2B2F73087502031C2E2FAC
:101E5A002F2F362F7308F5027408031CF603F602B7
:101E6A00211401300310F40CF30CFF3E031D372F2D
:101E7A000130A002031D422F432F1E2F2208F40017
:101E8A002108F300080083120313A901A71F4E2F8C
:101E9A004F2F562FA609A709A60A0319A70AA901AF
:101EAA00A90AA51F592F5A2F5F2FA409A509A40A09
:101EBA000319A50A240825040319642F652F942FF2
:101ECA00A801A80A732F01300310A40DA50DFF3E27
:101EDA00031D692F0130F8007808A807A51F762F7F
:101EEA00772F682F25082702031D7D2F2408260235
:101EFA00031C802F812F872F2408A6022508031C84
:101F0A00A703A70201300310A50CA40CFF3E031D72
:101F1A00882F0130A802031D932F942F772F2908A9
:101F2A000319982F992F9E2FA609A709A60A031904
:101F3A00A70A2708A5002608A400080000300A12EC
:101F4A008A158F250A128A153430F800F130F70005
:101F5A00F70BAD2FF80BAD2FB22F03300A128A15EB
:101F6A0056250A128A150D30F800FB30F700F70BD8
:101F7A00BC2FF80BBC2FC12F03300A128A15562525
:101F8A000A128A151D30F8009130F700F70BCB2F93
:101F9A00F80BCB2F03300A128A1556250A128A1516
:101FAA0002300A128A1556250A128A1502300A12B6
:101FBA008A1556250A128A1508300A128A155625D4
:101FCA000A128A1500300A128A1556250A128A152B
:101FDA000C300A128A1556250A128A1500300A127E
:101FEA008A1556250A128A1506300A128A155625A6
:061FFA000A128A1508001E
:08400000FF3FFF3FFF3FFF3FC0
:04400E00D420FF3F7C
:00000001FF
