:060000000A128A110C280F
:10000800FE00030EF1000A08F2000A128A117F2F7F
:100018000A128A110F2883136F30FD000730FE0083
:10002800DE30FF005D3084000A128A11CF270A12E1
:100038008A11EF01FA0183010A128A1123280A1290
:100048008A11DC260A128A114B3084006730831229
:100058000313B4000408B5000830B600340884005F
:1000680083130008B700B40A3508840037088000F5
:10007800B50AB60B3228413084005D30B40004085C
:10008800B5000A30B6003408840083130008B700AE
:10009800B40A3508840037088000B50AB60B47282B
:1000A8000A128A15E6270A128A11F701F70A01309F
:1000B8000A128A1159250A128A110B30F800803069
:1000C800F9000A128A11EB250A128A118312031306
:1000D8006F0885000A128A15CA270A128A11113078
:1000E800F3000030F4000A128A15DC270A128A117C
:1000F8000030F300F4000A128A110E270A128A113E
:10010800730883120313DC000A128A15D3270A1214
:100118008A11033083120313B6000830B500763015
:10012800B400B40B9528B50B9528B60B952800009C
:100138006430F3000030F400831203135C08B40049
:10014800B5013408F5003508F6000A128A1168234B
:100158000A128A11730883120313D5000A30A40007
:100168000030A5000A30F3000030F4005C08B40049
:10017800B5013408F5003508F6000A128A1168231B
:100188000A128A11740883120313A7007308A600C1
:100198000A128A11FE240A128A11831203132408F0
:1001A800D4000A30A4000030A5005C08B400B501F2
:1001B8003408A6003508A7000A128A11FE240A127C
:1001C8008A11831203132408D3000F30A70055089F
:1001D800B400B5013408A8003508A90038300A125F
:1001E8008A11A5220A128A11F701F70A02300A12A7
:1001F8008A1159250A128A113830F8000030F9009E
:100208000A128A11EB250A128A110F30831203137E
:10021800A7005408B400B5013408A8003508A9009F
:1002280038300A128A11A5220A128A110230F70000
:1002380002300A128A1159250A128A113830F80038
:100248000030F9000A128A11EB250A128A110F30C0
:1002580083120313A7005308B400B5013408A8009B
:100268003508A90038300A128A11A5220A128A1103
:100278000330F70002300A128A1159250A128A112E
:100288003830F8000030F9000A128A11EB250A12FA
:100298008A1100300A128A1139240A128A1183122B
:1002A8000313D60001300A128A1139240A128A115E
:1002B80083120313D70002300A128A1139240A1252
:1002C8008A1183120313D80003300A128A113924C1
:1002D8000A128A1183120313D90004300A128A11F0
:1002E80039240A128A1183120313DA0005300A121C
:1002F8008A1139240A128A1183120313DB000A3087
:10030800A4000030A5005608B400B5013408A600C2
:100318003508A7000A128A11FE240A128A118312CC
:1003280003132408303ED2000A30F3000030F400F2
:100338005608B400B5013408F5003508F6000A126D
:100348008A1168230A128A117308303E8312031334
:10035800D1000A30A4000030A5005708B400B50148
:100368003408A6003508A7000A128A11FE240A12CA
:100378008A11831203132408303ECF000A30F30099
:100388000030F4005708B400B5013408F50035080A
:10039800F6000A128A1168230A128A117308303E7D
:1003A80083120313CE000A30A4000030A5005808B9
:1003B800B400B5013408A6003508A7000A128A114E
:1003C800FE240A128A11831203132408303ECC003B
:1003D8000A30F3000030F4005808B400B5013408BE
:1003E800F5003508F6000A128A1168230A128A11E4
:1003F8007308303E83120313CB000A30A400003088
:10040800A5005B08B400B5013408A6003508A700AC
:100418000A128A11FE240A128A118312031324086D
:10042800303ECA000A30F3000030F4005B08B40024
:10043800B5013408F5003508F6000A128A11682358
:100448000A128A117308303E83120313C9000A3056
:10045800A4000030A5005A08B400B5013408A6006D
:100468003508A7000A128A11FE240A128A1183127B
:1004780003132408303EC5000A30F3000030F400AE
:100488005A08B400B5013408F5003508F6000A1218
:100498008A1168230A128A117308303E83120313E3
:1004A800C4000A30A4000030A5005908B400B50102
:1004B8003408A6003508A7000A128A11FE240A1279
:1004C8008A11831203132408303EC2000A30F30055
:1004D8000030F4005908B400B5013408F5003508B7
:1004E800F6000A128A1168230A128A117308303E2C
:1004F80083120313C1000730F70001300A128A1172
:1005080059250A128A114B30F8000030F9000A12F6
:100518008A11EB250A128A110730F70002300A12F5
:100528008A1159250A128A114130F8000030F90061
:100538000A128A11EB250A128A116A280A128A11EC
:100548000C2883120313B2002830AE00532B253039
:1005580033060319B02AB12ABB2A320884003308AB
:10056800831380000130AA002A08B207532BAD017B
:10057800C22AC030AA002A08AD04DC2A0130A70725
:10058800FF30270784000A128A1168270A128A1185
:10059800B300AA00AB012B08003A0319D42A532B45
:1005A8002A08003A0319632B753A0319BD2A532BFD
:1005B8002E08840083130008AF00840A0008B000E6
:1005C8000230AA002A08AE07B301B30A3308AA000A
:1005D8002A07013E84000A128A1168270A128A1122
:1005E800AB000A128A1168270A128A11AC002C087B
:1005F8003002031D012B2B082F020318042B052B97
:10060800062B102B0130AA002A08B3070530330641
:10061800031D0F2B102BEA2A3308B1004A2B0A308E
:10062800A3000030A4003108AA002A07013E840074
:100638000A128A1168270A128A11F3000A128A110B
:1006480068270A128A11F4003008F6002F08F5000E
:100658000A128A11A5250A128A1174088312031333
:10066800A6007308A5000A128A1131260A128A11F7
:10067800831203132308303EB30032088400330882
:10068800831380000130AA002A08B207FF30AA00AD
:100698002A08B107310A031D522B532B132B0130A3
:1006A800A707FF30270784000A128A1168270A1251
:1006B8008A11B3003308031D622B632BAB2A32085F
:1006C800840083138001080083120313A101F41F1F
:1006D8006E2B6F2B762BF309F409F30A0319F40A2E
:1006E800A101A10AF61F792B7A2B832BF509F609AC
:1006F800F50A0319F60A0130F7007708A106A201E6
:10070800A3017308740403198A2B8B2BC22BA00135
:10071800A00A992B01300310F30DF40DFF3E031DC1
:100728008F2B0130F7007708A007F41F9C2B9D2B17
:100738008E2B01300310A20DA30DFF3E031D9E2B2F
:1007480074087602031DAA2B73087502031CAD2BCF
:10075800AE2BB52B7308F5027408031CF603F602DA
:10076800221401300310F40CF30CFF3E031DB62BCA
:100778000130A002031DC12BC22B9D2B2108031998
:10078800C62BC72BCC2BA209A309A20A0319A30ABB
:100798002308F4002208F30008000030F7000030B6
:1007A800F6000030F5000030F4008312031323082C
:1007B8002204210420040319E22BE32B302CF80136
:1007C800F80AF32B0130F3000310A00DA10DA20DC0
:1007D800A30DF30BE82B0130F3007308F807A31FF0
:1007E800F62BF72BE62B0130F3000310F40DF50D73
:1007F800F60DF70DF30BF92B23082702031D0E2C1A
:1008080022082602031D0E2C21082502031D0E2C8A
:1008180020082402031C112C122C212C2008A402CD
:100828002108031C210FA5022208031C220FA6027F
:100838002308031C230FA702741401300310A30C10
:10084800A20CA10CA00CFF3E031D222C0130F802C3
:10085800031D2F2C302CF72B7708A3007608A20055
:100868007508A1007408A000080083120313A300F0
:100878000A128A15CA270A128A11D030F3000030EA
:10088800F4000A128A15DC270A128A11831203134C
:100898002308A000A1012008F3002108F4000A128F
:1008A8008A15DC270A128A110A128A15C1270A1228
:1008B8008A11D130F3000030F4000A128A15DC27BF
:1008C8000A128A110030F300F4000A128A110E2766
:1008D8000A128A11730883120313A4000A128A15D4
:1008E800D3270A128A11033083120313A200083097
:1008F800A1007630A000A00B7F2CA10B7F2CA20BAF
:100908007F2C00000F30831203132405A0000A3047
:10091800F3002408A10004300310A10CFF3E031DBE
:10092800902C21080A128A11B6270A128A118312FA
:1009380003132007A4002408080000300A128A11B3
:100948003C270A128A113430F800F130F700F70B0F
:10095800AB2CF80BAB2CB02C03300A128A119C2755
:100968000A128A110D30F800FB30F700F70BBA2C89
:10097800F80BBA2CBF2C03300A128A119C270A12D2
:100988008A111D30F8009130F700F70BC92CF80BCD
:10099800C92C03300A128A119C270A128A110230C4
:1009A8000A128A119C270A128A1102300A128A1125
:1009B8009C270A128A1108300A128A119C270A12E7
:1009C8008A1100300A128A119C270A128A110C30E7
:1009D8000A128A119C270A128A1100300A128A11F7
:1009E8009C270A128A1106300A128A119C270A12B9
:1009F8008A11080083120313A901A71F042D052DCE
:100A08000C2DA609A709A60A0319A70AA901A90A6C
:100A1800A51F0F2D102D152DA409A509A40A03192A
:100A2800A50A2408250403191A2D1B2D4A2DA801EF
:100A3800A80A292D01300310A40DA50DFF3E031DA2
:100A48001F2D0130F8007808A807A51F2C2D2D2D83
:100A58001E2D25082702031D332D24082602031CFA
:100A6800362D372D3D2D2408A6022508031CA70383
:100A7800A70201300310A50CA40CFF3E031D3E2D58
:100A88000130A802031D492D4A2D2D2D29080319CF
:100A98004E2D4F2D542DA609A709A60A0319A70AFA
:100AA8002708A5002608A400080083120313A00045
:100AB8002003031D602D612D802D77087F3EA30044
:100AC8002308F80004300310F80CFF3E031D672DBF
:100AD8007808A10023080F39A20021080A128A11F8
:100AE8009C270A128A118312031322080A128A11F8
:100AF8009C270A128A11A42D02302006031D852D79
:100B0800862DA42D7708BF3EA3002308F8000430E3
:100B18000310F80CFF3E031D8C2D7808A100230854
:100B28000F39A20021080A128A119C270A128A1179
:100B38008312031322080A128A119C270A128A11A7
:100B4800080083120313A101A20173087404031996
:100B5800AE2DAF2DE62DA001A00ABD2D013003104A
:100B6800F30DF40DFF3E031DB32D0130F700770898
:100B7800A007F41FC02DC12DB22D01300310A10D07
:100B8800A20DFF3E031DC22D74087602031DCE2D53
:100B980073087502031CD12DD22DD92D7308F502C7
:100BA8007408031CF603F602211401300310F40C38
:100BB800F30CFF3E031DDA2D0130A002031DE52DC5
:100BC800E62DC12D2208F4002108F3000800831245
:100BD8000313A301A401142E23087807A1007908A0
:100BE800A0000318A00AA31FFA2DA0038312031361
:100BF8002008A2002208FF00210884000A128A1196
:100C08005E270A128A110A128A11A7260A128A1165
:100C1800013083120313A3070318A40A0030A407A2
:100C280023087807A1007908A0000318A00AA31FC9
:100C38001E2EA003831203132008A2002208FF001F
:100C4800210884000A128A115E270A128A11003AC2
:100C5800031D2F2E302EF02D0800831203132308B6
:100C680024040319382E392E682EF901F90A472E63
:100C780001300310A30DA40DFF3E031D3D2E0130CE
:100C8800F8007808F907A41F4A2E4B2E3C2E24089A
:100C98002602031D512E23082502031C542E552E0F
:100CA8005B2E2308A5022408031CA603A602013014
:100CB8000310A40CA30CFF3E031D5C2E0130F902A7
:100CC800031D672E682E4B2E2608A4002508A300B6
:100CD800080028308312031394008316031391012C
:100CE800831203132808AC002908AD002A08AE00B7
:100CF8002B08AF0002300310AC0DAD0DAE0DAF0DDB
:100D0800FF3E031D7F2E2F08A3002E08A2002D08EA
:100D1800A1002C08A0000030A7007A30A6001230ED
:100D2800A5000030A4000A128A11D1230A128A11E0
:100D3800831203132008FF3E8316031393009401C4
:100D4800871507160800F70077080F39F5007708A8
:100D5800F039F6008312031308157608F4000430FE
:100D68000310F40CFF3E031DB42E74080A128A11F6
:100D78003C270A128A118312031388151A30F400CB
:100D8800F40BC42E000083120313881175080A128D
:100D98008A113C270A128A118312031388151A3004
:100DA800F400F40BD52E00008312031388110800F9
:100DB80083160317880189018316031385010730F9
:100DC80086008801811315149514151507309600AF
:100DD800831203138501860188010030AB000130BE
:100DE800AA008630A900A030A8000A128A116D2630
:100DF8000A128A1107300A128A11F0270A128A1178
:100E08000A128A11A1240A128A118B170B178B1543
:100E18000B1008000A128A15F3270A128A11831682
:100E2800031391150A128A15F3270A128A118312DD
:100E380003131308F500F6017508F7007608F800A3
:100E48000A128A15F3270A128A1173037404031D00
:100E58002E2F2F2F332F831603139112362F83161D
:100E68000313911611167808F4007708F3000800A8
:100E7800F300731C402F412F452F831203130816CC
:100E8800482F831203130812F31C4B2F4C2F4E2F9D
:100E980088164F2F8812731D522F532F552F08175E
:100EA800562F0813F31D592F5A2F5C2F88175D2FC3
:100EB80088130800FF1B682F83137F188317000807
:100EC800840A0319FF0A080007308A000408840A04
:100ED80082070034013400340A34003464340034A6
:100EE800E834033410342734533431343A3400347A
:100EF8002534753400340B1C822F832F952F8312D1
:100F080003130618882F892F942F0130F0007008DA
:100F1800EF0706306F06031D922F932F942FEF01D2
:100F28000B1072088A00710E8300FE0E7E0E0900F7
:100F3800F60083120313081176080A128A113C2757
:100F48000A128A118312031388150B30F5006230D8
:100F5800F400F40BAD2FF50BAD2F00008312031333
:100F680088110800F600F501761CBB2FBC2FC02F96
:100F78007308F4007408F5070310F30D0310F60C5A
:100F88007608031DC82FC92FB82F750808007E08DA
:100F98008A007F0882000A128A11CB270A128A1156
:100FA8008000840A04087D0603190034FF0A031927
:100FB800FE0ACF2F303431342F34303431342F34CB
:100FC8003234303430343034303430343A343034ED
:100FD80030343A3430343034F4007408F300F30E0B
:100FE800831603130F0873068F3973068F000F14C7
:020FF8000800EF
:101F82000A128A15F3270A128A158316031391146B
:101F920008000A128A15F3270A128A1583160313F8
:101FA200111408000A128A15F3270A128A158316D9
:101FB2000313111508000A128A15F3270A128A154B
:101FC2007308831203139300080000300A128A1167
:101FD2009C270A128A1501300A128A119C270A12BA
:101FE2008A150800831603131419F82FF92FF32FFB
:0E1FF20011081F39031DFE2FFF2FF32F0800CB
:08400000FF3FFF3FFF3FFF3FC0
:04400E00D420FF3F7C
:00000001FF
