:100000000A128A11FC2FFF1B0D2883137F188317F8
:100010000008840A0319FF0A080000308A00040857
:10002000840A82070034013400340A340034643412
:100030000034E834033410342734533431343A3440
:100040000034533432343A340034533433343A3491
:0800500000342534753400343E
:1004A6000A128A116F220A128A1183160313111473
:1004B60008000A128A116F220A128A118316031380
:1004C600111508000A128A116F220A128A11700881
:1004D6008312031393000800831603131419742A56
:1004E600752A6F2A11081F39031D7A2A7B2A6F2A5B
:1004F600080000300A128A1196220A128A11013067
:100506000A128A1196220A128A110800F10071084D
:10051600F000F00E831603130F0870068F3970066D
:100526008F000F140800F3008312031308117308D9
:100536000A128A11B0220A128A118312031388152D
:100546000B30F2006230F100F10BA72AF20BA72A5A
:1005560000008312031388110800F000701CB42AEF
:10056600B52AB92A831203130816BC2A8312031369
:100576000812F01CBF2AC02AC22A8816C32A88126B
:10058600701DC62AC72AC92A0817CA2A0813F01DC9
:10059600CD2ACE2AD02A8817D12A88130800831696
:1005A60003178801890183160313860188018312C4
:1005B6000313860188010030A3000130A2008630B3
:1005C600A100A030A0000A128A115A230A128A1129
:1005D60007300A128A1189220A128A110A128A110E
:1005E600F3240A128A1108000A128A116F220A12CB
:1005F6008A118316031391150A128A116F220A12A1
:100606008A11831203131308F200F3017208F4002F
:100616007308F5000A128A116F220A128A117003F2
:100626007104031D172B182B1C2B83160313911211
:100636001F2B83160313911611167508F100740803
:10064600F0000800F40074080F39F2007408F0395D
:10065600F3008312031308157308F1000430031026
:10066600F10CFF3E031D322B71080A128A11B022CB
:100676000A128A118312031388151A30F100F10B3E
:10068600422B000083120313881172080A128A1182
:10069600B0220A128A118312031388151A30F10048
:1006A600F10B532B00008312031388110800283026
:1006B6008312031394008316031391018312031309
:1006C6002008A4002108A5002208A6002308A700E8
:1006D60002300310A40DA50DA60DA70DFF3E031DA8
:1006E6006C2B2708F3002608F2002508F1002408E1
:1006F600F0000030F7007A30F6001230F5000030D6
:10070600F4000A128A1150250A128A117008FF3E57
:1007160083160313930094018715071608007808BB
:1007260079040319972B982BC72BFD01FD0AA62BDD
:1007360001300310F80DF90DFF3E031D9C2B01300F
:10074600FC007C08FD07F91FA92BAA2B9B2B790817
:100756007B02031DB02B78087A02031CB32BB42B43
:10076600BA2B7808FA027908031CFB03FB02013056
:100776000310F90CF80CFF3E031DBB2B0130FD02E4
:10078600031DC62BC72BAA2B7B08F9007A08F80095
:100796000800FA01FB01F12B7A087507F8007608C4
:1007A600F7000318F70AFA1FD92BF7037708F900A1
:1007B600790883120313FF00780884000A128A114D
:1007C60003200A128A110A128A1125230A128A1193
:1007D6000130FA070318FB0A0030FB077A08750791
:1007E600F8007608F7000318F70AFA1FFB2BF70341
:1007F6007708F900790883120313FF00780884004C
:100806000A128A1103200A128A11003A031D0C2CBF
:100816000D2CCF2B0800F501F601700871040319A1
:10082600152C162C4D2CF701F70A242C0130031039
:10083600F00DF10DFF3E031D1A2C0130F400740873
:10084600F707F11F272C282C192C01300310F50D62
:10085600F60DFF3E031D292C71087302031D352C6E
:1008660070087202031C382C392C402C7008F202D6
:100876007108031CF303F302751401300310F10C25
:10088600F00CFF3E031D412C0130F702031D4C2CDA
:100896004D2C282C7608F1007508F0000800F600AB
:1008A6007603031D572C582C752C74087F3EF900CF
:1008B6007908F50004300310F50CFF3E031D5E2C8D
:1008C6007508F70079080F39F80077080A128A11B7
:1008D60096220A128A1178080A128A1196220A1298
:1008E6008A11972C02307606031D7A2C7B2C972CC6
:1008F6007408BF3EF9007908F50004300310F50CC2
:10090600FF3E031D812C7508F70079080F39F800A2
:1009160077080A128A1196220A128A1178080A1290
:100926008A1196220A128A11080083120313A10162
:10093600FC1F9E2C9F2CA62CFB09FC09FB0A031905
:10094600FC0AA101A10AFA1FA92CAA2CAF2CF909AD
:10095600FA09F90A0319FA0A79087A040319B42C70
:10096600B52CE42CA001A00AC32C01300310F90D0C
:10097600FA0DFF3E031DB92C0130FD007D08A007CE
:10098600FA1FC62CC72CB82C7A087C02031DCD2C66
:1009960079087B02031CD02CD12CD72C7908FB02BA
:1009A6007A08031CFC03FC0201300310FA0CF90C54
:1009B600FF3E031DD82C0130A002031DE32CE42CBE
:1009C600C72C21080319E82CE92CEE2CFB09FC099D
:1009D600FB0A0319FC0A7C08FA007B08F9000800E8
:1009E60000300A128A11B0220A128A113430F50038
:1009F600F130F400F40BFD2CF50BFD2C022D033029
:100A06000A128A1196220A128A110D30F500FB305D
:100A1600F400F40B0C2DF50B0C2D112D03300A12DE
:100A26008A1196220A128A111D30F5009130F400BF
:100A3600F40B1B2DF50B1B2D03300A128A1196227F
:100A46000A128A1102300A128A1196220A128A1191
:100A560002300A128A1196220A128A1108300A12E4
:100A66008A1196220A128A1100300A128A119622D7
:100A76000A128A110C300A128A1196220A128A1157
:100A860000300A128A1196220A128A1106300A12B8
:100A96008A1196220A128A1108000030FC000030E2
:100AA600FB000030FA000030F9007308720471048C
:100AB600700403195F2D602DAD2DFD01FD0A702D0B
:100AC6000130F8000310F00DF10DF20DF30DF80BE7
:100AD600652D0130F8007808FD07F31F732D742D7E
:100AE600632D0130F8000310F90DFA0DFB0DFC0D16
:100AF600F80B762D73087702031D8B2D720876028C
:100B0600031D8B2D71087502031D8B2D7008740251
:100B1600031C8E2D8F2D9E2D7008F4027108031C68
:100B2600710FF5027208031C720FF6027308031C9C
:100B3600730FF702791401300310F30CF20CF10C69
:100B4600F00CFF3E031D9F2D0130FD02031DAC2D51
:100B5600AD2D742D7C08F3007B08F2007A08F100B5
:100B66007908F0000800F601F11FBA2DBB2DC22D41
:100B7600F009F109F00A0319F10AF601F60AF31F62
:100B8600C52DC62DCF2DF209F309F20A0319F30A72
:100B96000130F4007408F606F701F80170087104D4
:100BA6000319D62DD72D0E2EF501F50AE52D0130A8
:100BB6000310F00DF10DFF3E031DDB2D0130F40097
:100BC6007408F507F11FE82DE92DDA2D0130031021
:100BD600F70DF80DFF3E031DEA2D71087302031D84
:100BE600F62D70087202031CF92DFA2D012E7008DD
:100BF600F2027108031CF303F302771401300310A9
:100C0600F10CF00CFF3E031D022E0130F502031D10
:100C16000D2E0E2EE92D76080319122E132E182EE0
:100C2600F709F809F70A0319F80A7808F1007708AE
:100C3600F000080083120313AB002130A700C92E71
:100C460025302C060319282E292E332E2B08840036
:100C56002C08831380000130A3002308AB07C92E9C
:100C6600A6013A2EC030A3002308A604542E013054
:100C7600A007FF30200784000A128A110D200A12ED
:100C86008A11AC00A300A4012408003A03194C2ED3
:100C9600C92E2308003A0319D92E753A0319352EA1
:100CA600C92E2708840083130008A800840A0008B8
:100CB600A9000230A3002308A707AC01AC0A2C0840
:100CC600A3002307013E84000A128A110D200A128E
:100CD6008A11A4000A128A110D200A128A11A5008F
:100CE60025082902031D792E2408280203187C2EC4
:100CF6007D2E7E2E882E0130A3002308AC070530FA
:100D06002C06031D872E882E622E2C08AA00C02EC4
:100D16000A30F8000030F9002A08A3002307013E34
:100D260084000A128A110D200A128A11F0000A1292
:100D36008A110D200A128A11F1002908F3002808E9
:100D4600F2000A128A110E240A128A117108FB0097
:100D56007008FA000A128A1192230A128A11780878
:100D6600303E83120313AC002B0884002C08831337
:100D760080000130A3002308AB07FF30A30023083F
:100D8600AA072A0A031DC82EC92E8B2E0130A007DA
:100D9600FF30200784000A128A110D200A128A11D8
:100DA600AC002C08031DD82ED92E232E2B08840028
:100DB6008313800108000A128A11D2220A128A11AC
:100DC6000A128A117C220A128A11F401F40A0130ED
:100DD6000A128A1152240A128A110B30F500803049
:100DE600F6000A128A11CC230A128A110730F4007F
:100DF60001300A128A1152240A128A110F30F500A4
:100E06008030F6000A128A11CC230A128A110D309C
:100E1600F40001300A128A1152240A128A11133080
:100E2600F5008030F6000A128A11CC230A128A11C4
:100E36000A128A1153220A128A115130F000003028
:100E4600F1000A128A1165220A128A110030F00096
:100E5600F1000A128A11F7220A128A117008831207
:100E66000313BC000A128A115C220A128A1103308B
:100E760083120313AF000830AE007630AD00AD0B21
:100E8600422FAE0B422FAF0B422F00006430F00012
:100E96000030F100831203133C08AD00AE012D08AB
:100EA600F2002E08F3000A128A11B6250A128A11D8
:100EB600700883120313BB000A30F9000030FA00F1
:100EC6000A30F0000030F1003C08AD00AE012D08FC
:100ED600F2002E08F3000A128A11B6250A128A11A8
:100EE6007108FC007008FB000A128A1198240A1285
:100EF6008A11790883120313BA000A30F900003008
:100F0600FA003C08AD00AE012D08FB002E08FC00DF
:100F16000A128A1198240A128A1179088312031375
:100F2600B9001730A0003B08AD00AE012D08A100A6
:100F36002E08A20030300A128A111D260A128A11C2
:100F4600F401F40A02300A128A1152240A128A1192
:100F56003030F5000030F6000A128A11CC230A124E
:100F66008A11173083120313A0003A08AD00AE01B0
:100F76002D08A1002E08A20030300A128A111D2663
:100F86000A128A110230F40002300A128A1152241F
:100F96000A128A113030F5000030F6000A128A1162
:100FA600CC230A128A11173083120313A0003908C2
:100FB600AD00AE012D08A1002E08A20030300A12A5
:100FC6008A111D260A128A110330F40002300A1211
:100FD6008A1152240A128A113030F5000030F600C8
:100FE6000A128A11CC230A128A111B2F0A128A119D
:0A0FF600002883010A128A11DE2E82
:08400000FF3FFF3FFF3FFF3FC0
:04400E00D420FF3F7C
:00000001FF
