:100000000A128A11FC2FFF1B0D2883137F188317F8
:100010000008840A0319FF0A080000308A00040857
:10002000840A82070034013400340A340034643412
:100030000034E834033410342734533465346734DF
:1000400075346E3464346F3473343A34003453345A
:0C00500031343A34003425347534003467
:10038C000A128A11F8210A128A1183160313911486
:10039C0008000A128A11F8210A128A118316031313
:1003AC00111408000A128A11F8210A128A118316F4
:1003BC000313111508000A128A11F8210A128A1166
:1003CC007008831203139300080000300A128A117C
:1003DC0027220A128A1101300A128A1127220A12C4
:1003EC008A110800831603131419FD29FE29F82914
:1003FC0011081F39031D032A042AF8290800F100EB
:10040C007108F000F00E831603130F0870068F3975
:10041C0070068F000F140800F300F201731C172AEA
:10042C00182A1C2A7008F1007108F2070310F00D4D
:10043C000310F30C7308031D242A252A142A7208AE
:10044C000800F30083120313081173080A128A11AF
:10045C0041220A128A118312031388150B30F20001
:10046C006230F100F10B382AF20B382A00008312AB
:10047C00031388110800F000701C452A462A4A2AEA
:10048C008312031308164D2A831203130812F01C4F
:10049C00502A512A532A8816542A8812701D572A1A
:1004AC00582A5A2A08175B2A0813F01D5E2A5F2A5D
:1004BC00612A8817622A881308008316031788019B
:1004CC0089018316031386018801831203138601A5
:1004DC0088010030A3000130A2008630A100A030BA
:1004EC00A0000A128A11EB220A128A1107300A1292
:1004FC008A1105220A128A110A128A11DA240A12A6
:10050C008A1108000A128A11F8210A128A1183161C
:10051C00031391150A128A11F8210A128A118312F7
:10052C0003131308F200F3017208F4007308F500CA
:10053C000A128A11F8210A128A1170037104031D20
:10054C00A82AA92AAD2A831603139112B02A83165E
:10055C000313911611167508F1007408F0000800C9
:10056C00F40074080F39F2007408F039F3008312A8
:10057C00031308157308F10004300310F10CFF3E4F
:10058C00031DC32A71080A128A1141220A128A1108
:10059C008312031388151A30F100F10BD32A0000D3
:1005AC0083120313881172080A128A1141220A124B
:1005BC008A118312031388151A30F100F10BE42A07
:1005CC0000008312031388110800283083120313D0
:1005DC009400831603139101831203132008A400C3
:1005EC002108A5002208A6002308A700023003104A
:1005FC00A40DA50DA60DA70DFF3E031DFD2A270872
:10060C00F3002608F2002508F1002408F000003061
:10061C00F7007A30F6001230F5000030F4000A12C0
:10062C008A1137250A128A117008FF3E83160313AC
:10063C0093009401871507160800780879040319AC
:10064C00282B292B582BFD01FD0A372B01300310C9
:10065C00F80DF90DFF3E031D2D2B0130FC007C081D
:10066C00FD07F91F3A2B3B2B2C2B79087B02031D22
:10067C00412B78087A02031C442B452B4B2B780812
:10068C00FA027908031CFB03FB0201300310F90C7E
:10069C00F80CFF3E031D4C2B0130FD02031D572BA4
:1006AC00582B3B2B7B08F9007A08F8000800FA015C
:1006BC00FB01822B7A087507F8007608F7000318FF
:1006CC00F70AFA1F6A2BF7037708F90079088312E7
:1006DC000313FF00780884000A128A1103200A12FF
:1006EC008A110A128A11B6220A128A110130FA07EB
:1006FC000318FB0A0030FB077A087507F800760828
:10070C00F7000318F70AFA1F8C2BF7037708F90088
:10071C00790883120313FF00780884000A128A11E7
:10072C0003200A128A11003A031D9D2B9E2B602B6D
:10073C000800F501F601700871040319A62BA72B0C
:10074C00DE2BF701F70AB52B01300310F00DF10D7C
:10075C00FF3E031DAB2B0130F4007408F707F11FAB
:10076C00B82BB92BAA2B01300310F50DF60DFF3E5B
:10077C00031DBA2B71087302031DC62B700872027D
:10078C00031CC92BCA2BD12B7008F2027108031C55
:10079C00F303F302751401300310F10CF00CFF3E5F
:1007AC00031DD22B0130F702031DDD2BDE2BB92BE1
:1007BC007608F1007508F0000800F6007603031DBA
:1007CC00E82BE92B062C74087F3EF9007908F5001C
:1007DC0004300310F50CFF3E031DEF2B7508F700DA
:1007EC0079080F39F80077080A128A1127220A12A1
:1007FC008A1178080A128A1127220A128A11282CC7
:10080C0002307606031D0B2C0C2C282C7408BF3ED2
:10081C00F9007908F50004300310F50CFF3E031DB8
:10082C00122C7508F70079080F39F80077080A12AE
:10083C008A1127220A128A1178080A128A11272291
:10084C000A128A1108000A128A11CF210A128A117F
:10085C00D030F0000030F1000A128A11E1210A12A6
:10086C008A110030F000F1000A128A11E1210A12FB
:10087C008A110A128A11C6210A128A11D130F0008B
:10088C000030F1000A128A11E1210A128A1100309B
:10089C00F000F1000A128A1188220A128A117008DB
:1008AC00F9000A128A11D8210A128A110330F800B1
:1008BC000830F7007730F600F60B622CF70B622C41
:1008CC00F80B622C0F307905F6000A30F00079082D
:1008DC00F70004300310F70CFF3E031D702C770853
:1008EC000A128A1112220A128A117607F900790863
:1008FC00080083120313A101FC1F852C862C8D2C60
:10090C00FB09FC09FB0A0319FC0AA101A10AFA1F45
:10091C00902C912C962CF909FA09F90A0319FA0A68
:10092C0079087A0403199B2C9C2CCB2CA001A00ACF
:10093C00AA2C01300310F90DFA0DFF3E031DA02C5B
:10094C000130FD007D08A007FA1FAD2CAE2C9F2CAA
:10095C007A087C02031DB42C79087B02031CB72C8B
:10096C00B82CBE2C7908FB027A08031CFC03FC0291
:10097C0001300310FA0CF90CFF3E031DBF2C0130A3
:10098C00A002031DCA2CCB2CAE2C21080319CF2C92
:10099C00D02CD52CFB09FC09FB0A0319FC0A7C089A
:1009AC00FA007B08F900080000300A128A11412273
:1009BC000A128A113430F500F130F400F40BE42CF7
:1009CC00F50BE42CE92C03300A128A1127220A12A7
:1009DC008A110D30F500FB30F400F40BF32CF50B01
:1009EC00F32CF82C03300A128A1127220A128A11CE
:1009FC001D30F5009130F400F40B022DF50B022D97
:100A0C0003300A128A1127220A128A1102300A12A2
:100A1C008A1127220A128A1102300A128A112722FD
:100A2C000A128A1108300A128A1127220A128A1114
:100A3C0000300A128A1127220A128A110C300A126B
:100A4C008A1127220A128A1100300A128A112722CF
:100A5C000A128A1106300A128A1127220A128A11E6
:100A6C0008000030FC000030FB000030FA000030C1
:100A7C00F90073087204710470040319462D472D94
:100A8C00942DFD01FD0A572D0130F8000310F00DD7
:100A9C00F10DF20DF30DF80B4C2D0130F800780828
:100AAC00FD07F31F5A2D5B2D4A2D0130F800031062
:100ABC00F90DFA0DFB0DFC0DF80B5D2D730877028B
:100ACC00031D722D72087602031D722D71087502BA
:100ADC00031D722D70087402031C752D762D852D47
:100AEC007008F4027108031C710FF5027208031CE4
:100AFC00720FF6027308031C730FF702791401309E
:100B0C000310F30CF20CF10CF00CFF3E031D862DC0
:100B1C000130FD02031D932D942D5B2D7C08F300F9
:100B2C007B08F2007A08F1007908F0000800F60161
:100B3C00F11FA12DA22DA92DF009F109F00A03191D
:100B4C00F10AF601F60AF31FAC2DAD2DB62DF20904
:100B5C00F309F20A0319F30A0130F4007408F606DB
:100B6C00F701F801700871040319BD2DBE2DF52D88
:100B7C00F501F50ACC2D01300310F00DF10DFF3EFF
:100B8C00031DC22D0130F4007408F507F11FCF2DA1
:100B9C00D02DC12D01300310F70DF80DFF3E031DB4
:100BAC00D12D71087302031DDD2D70087202031C18
:100BBC00E02DE12DE82D7008F2027108031CF303FF
:100BCC00F302771401300310F10CF00CFF3E031DFF
:100BDC00E92D0130F502031DF42DF52DD02D7608ED
:100BEC000319F92DFA2DFF2DF709F809F70A031946
:100BFC00F80A7808F1007708F00008008312031354
:100C0C00AB002130A700B02E25302C0603190F2E77
:100C1C00102E1A2E2B0884002C0883138000013010
:100C2C00A3002308AB07B02EA601212EC030A300D1
:100C3C002308A6043B2E0130A007FF3020078400B8
:100C4C000A128A110D200A128A11AC00A300A40109
:100C5C002408003A0319332EB02E2308003A031946
:100C6C00C02E753A03191C2EB02E2708840083134E
:100C7C000008A800840A0008A9000230A300230879
:100C8C00A707AC01AC0A2C08A3002307013E840083
:100C9C000A128A110D200A128A11A4000A128A1152
:100CAC000D200A128A11A50025082902031D602EA9
:100CBC00240828020318632E642E652E6F2E013033
:100CCC00A3002308AC0705302C06031D6E2E6F2ED7
:100CDC00492E2C08AA00A72E0A30F8000030F90083
:100CEC002A08A3002307013E84000A128A110D2052
:100CFC000A128A11F0000A128A110D200A128A11A6
:100D0C00F1002908F3002808F2000A128A119F2327
:100D1C000A128A117108FB007008FA000A128A1173
:100D2C0023230A128A117808303E83120313AC0075
:100D3C002B0884002C08831380000130A3002308A7
:100D4C00AB07FF30A3002308AA072A0A031DAF2E06
:100D5C00B02E722E0130A007FF30200784000A123B
:100D6C008A110D200A128A11AC002C08031DBF2E0B
:100D7C00C02E0A2E2B0884008313800108000A124F
:100D8C008A1163220A128A110A128A11EB210A12A1
:100D9C008A11F401F40A01300A128A11E3230A12AF
:100DAC008A111530F5008030F6000A128A115D2385
:100DBC000A128A110730F40001300A128A11E32357
:100DCC000A128A110B30F5008030F6000A128A11D3
:100DDC005D230A128A110A128A11CF210A128A1172
:100DEC001130F0000030F1000A128A11E1210A12D0
:100DFC008A110030F000F1000A128A1188220A12BE
:100E0C008A11700883120313C6000A128A11D821A2
:100E1C000A128A11033083120313AF000830AE009C
:100E2C007630AD00AD0B182FAE0B182FAF0B182F63
:100E3C0000006430F0000030F10083120313460808
:100E4C00AD00AE012D08F2002E08F3000A128A1133
:100E5C009D250A128A11700883120313C4000A30EC
:100E6C00F9000030FA000A30F0000030F1004608BA
:100E7C00AD00AE012D08F2002E08F3000A128A1103
:100E8C009D250A128A117108FC007008FB000A12D9
:100E9C008A117F240A128A11790883120313C30062
:100EAC000A30F9000030FA004608AD00AE012D08FA
:100EBC00FB002E08FC000A128A117F240A128A11E8
:100ECC00790883120313C2001930A0004408AD0046
:100EDC00AE012D08A1002E08A20039300A128A1189
:100EEC0004260A128A11F401F40A02300A128A1139
:100EFC00E3230A128A113930F5000030F6000A1289
:100F0C008A115D230A128A11193083120313A0006F
:100F1C004308AD00AE012D08A1002E08A200393007
:100F2C000A128A1104260A128A110230F4000230C5
:100F3C000A128A11E3230A128A113930F5000030A3
:100F4C00F6000A128A115D230A128A1119308312D3
:100F5C000313A0004208AD00AE012D08A1002E081D
:100F6C00A20039300A128A1104260A128A1103309F
:100F7C00F40002300A128A11E3230A128A11393062
:100F8C00F5000030F6000A128A115D230A128A114C
:100F9C000A128A1129240A128A1183120313C5001A
:100FAC00450886001930A0004508AD00AE012D089B
:100FBC00A1002E08A20030300A128A1104260A124F
:100FCC008A110730F40002300A128A11E3230A1244
:100FDC008A113030F5000030F6000A128A115D23B8
:100FEC000A128A11F12E0A128A11002883010A12A0
:040FFC008A11C52E63
:08400000FF3FFF3FFF3FFF3FC0
:04400E00D420FF3F7C
:00000001FF
