:100000000A128A11FC2FFF1B0D2883137F188317F8
:100010000008840A0319FF0A080000308A00040857
:10002000840A82070034013400340A340034643412
:100030000034E834033410342734533431343A3440
:0800400000342534753400344E
:10004A000A128A15B7270A128A1170088312031333
:10005A0093000800F000701C3328342838288312D3
:10006A00031308163B28831203130812F01C3E28B8
:10007A003F284128881642288812701D452846289C
:10008A004828081749280813F01D4C284D284F28DE
:10009A0088175028881308008316031788018901D6
:1000AA0083160313860188018312031386018801CC
:1000BA000030A3000130A2008630A100A030A000C9
:1000CA000A128A11D9200A128A1107300A128A15CD
:1000DA00C4270A128A110A128A1176230A128A116D
:1000EA0008000A128A15B7270A128A1183160313FF
:1000FA0091150A128A15B7270A128A118312031355
:10010A001308F200F3017208F4007308F5000A12EA
:10011A008A15B7270A128A1170037104031D9628DB
:10012A0097289B288316031391129E28831603137C
:10013A00911611167508F1007408F0000800F40011
:10014A0074080F39F2007408F039F30083120313AC
:10015A0008157308F10004300310F10CFF3E031D6B
:10016A00B12871080A128A112F200A128A118312E1
:10017A00031388151A30F100F10BC128000083120D
:10018A000313881172080A128A112F200A128A117F
:10019A008312031388151A30F100F10BD2280000DC
:1001AA008312031388110800283083120313940062
:1001BA00831603139101831203132008A400210854
:1001CA00A5002208A6002308A70002300310A40DE8
:1001DA00A50DA60DA70DFF3E031DEB282708F3006A
:1001EA002608F2002508F1002408F0000030F70084
:1001FA007A30F6001230F5000030F4000A128A1143
:10020A00D3230A128A117008FF3E83160313930040
:10021A009401871507160800780879040319162926
:10022A0017294629FD01FD0A252901300310F80D79
:10023A00F90DFF3E031D1B290130FC007C08FD0758
:10024A00F91F282929291A2979087B02031D2F2930
:10025A0078087A02031C3229332939297808FA02E4
:10026A007908031CFB03FB0201300310F90CF80C9C
:10027A00FF3E031D3A290130FD02031D4529462987
:10028A0029297B08F9007A08F8000800FA01FB011D
:10029A0070297A087507F8007608F7000318F70A34
:1002AA00FA1F5829F7037708F9007908831203130C
:1002BA00FF00780884000A128A1103200A128A11A0
:1002CA000A128A11A4200A128A110130FA070318A5
:1002DA00FB0A0030FB077A087507F8007608F70072
:1002EA000318F70AFA1F7A29F7037708F900790839
:1002FA0083120313FF00780884000A128A1103206C
:10030A000A128A11003A031D8B298C294E290800EA
:10031A00F501F60170087104031994299529CC296D
:10032A00F701F70AA32901300310F00DF10DFF3E82
:10033A00031D99290130F4007408F707F11FA62953
:10034A00A729982901300310F50DF60DFF3E031D6C
:10035A00A82971087302031DB42970087202031CCC
:10036A00B729B829BF297008F2027108031CF303E0
:10037A00F302751401300310F10CF00CFF3E031D5B
:10038A00C0290130F702031DCB29CC29A7297608F9
:10039A00F1007508F0000800F6007603031DD6295F
:1003AA00D729F42974087F3EF9007908F50004304A
:1003BA000310F50CFF3E031DDD297508F7007908C7
:1003CA000F39F80077080A128A15E6270A128A11E5
:1003DA0078080A128A15E6270A128A11162A0230A2
:1003EA007606031DF929FA29162A7408BF3EF90070
:1003FA007908F50004300310F50CFF3E031D002AAE
:10040A007508F70079080F39F80077080A128A1573
:10041A00E6270A128A1178080A128A15E6270A12AA
:10042A008A1108000A128A1598270A128A11D030EE
:10043A00F0000030F1000A128A1125200A128A11EE
:10044A000030F000F1000A128A1125200A128A11DE
:10045A000A128A158F270A128A11D130F000003049
:10046A00F1000A128A1125200A128A110030F000BE
:10047A00F1000A128A1176200A128A117008F9000C
:10048A000A128A15A1270A128A110330F8000830C5
:10049A00F7007730F600F60B502AF70B502AF80BC4
:1004AA00502A0F307905F6000A30F0007908F70073
:1004BA0004300310F70CFF3E031D5E2A77080A1268
:1004CA008A15D1270A128A117607F90079080800D5
:1004DA000A128A1598270A128A11D030F0000030C1
:1004EA00F1000A128A1125200A128A110230F0003C
:1004FA000030F1000A128A1125200A128A110A1202
:10050A008A158F270A128A11D130F0000030F100C3
:10051A000A128A1125200A128A110030F000F1000D
:10052A000A128A1176200A128A117008F9000A1230
:10053A008A15A1270A128A110330F8000830F70039
:10054A007730F600F60BA72AF70BA72AF80BA72A8B
:10055A000F307905F6000A30F0007908F700043008
:10056A000310F70CFF3E031DB52A77080A128A15F5
:10057A00D1270A128A117607F900790808000A12A7
:10058A008A1598270A128A11D030F0000030F1003B
:10059A000A128A1125200A128A110130F00000304D
:1005AA00F1000A128A1125200A128A110A128A15E2
:1005BA008F270A128A11D130F0000030F1000A1296
:1005CA008A1125200A128A110030F000F1000A125D
:1005DA008A1176200A128A117008F9000A128A15FD
:1005EA00A1270A128A110330F8000830F700773081
:1005FA00F600F60BFE2AF70BFE2AF80BFE2A0F303E
:10060A007905F6000A30F0007908F7000430031083
:10061A00F70CFF3E031D0C2B77080A128A15D12707
:10062A000A128A117607F90079080800831203135F
:10063A00A101FC1F212B222B292BFB09FC09FB0AF8
:10064A000319FC0AA101A10AFA1F2C2B2D2B322B0C
:10065A00F909FA09F90A0319FA0A79087A0403194D
:10066A00372B382B672BA001A00A462B0130031029
:10067A00F90DFA0DFF3E031D3C2B0130FD007D08EC
:10068A00A007FA1F492B4A2B3B2B7A087C02031D31
:10069A00502B79087B02031C532B542B5A2B7908B5
:1006AA00FB027A08031CFC03FC0201300310FA0C5B
:1006BA00F90CFF3E031D5B2B0130A002031D662BC4
:1006CA00672B4A2B210803196B2B6C2B712BFB0907
:1006DA00FC09FB0A0319FC0A7C08FA007B08F900EA
:1006EA00080000300A128A112F200A128A113430A7
:1006FA00F500F130F400F40B802BF50B802B852BE1
:10070A0003300A128A15E6270A128A110D30F500FB
:10071A00FB30F400F40B8F2BF50B8F2B942B03304B
:10072A000A128A15E6270A128A111D30F50091303D
:10073A00F400F40B9E2BF50B9E2B03300A128A153C
:10074A00E6270A128A1102300A128A15E6270A12C5
:10075A008A1102300A128A15E6270A128A1108300B
:10076A000A128A15E6270A128A1100300A128A1515
:10077A00E6270A128A110C300A128A15E6270A128B
:10078A008A1100300A128A15E6270A128A110630DF
:10079A000A128A15E6270A128A1108000030FC009C
:1007AA000030FB000030FA000030F90073087204D0
:1007BA00710470040319E22BE32B302CFD01FD0AAE
:1007CA00F32B0130F8000310F00DF10DF20DF30DCB
:1007DA00F80BE82B0130F8007808FD07F31FF62B19
:1007EA00F72BE62B0130F8000310F90DFA0DFB0D7B
:1007FA00FC0DF80BF92B73087702031D0E2C7208F7
:10080A007602031D0E2C71087502031D0E2C70084A
:10081A007402031C112C122C212C7008F40271088A
:10082A00031C710FF5027208031C720FF60273089B
:10083A00031C730FF702791401300310F30CF20C46
:10084A00F10CF00CFF3E031D222C0130FD02031DAA
:10085A002F2C302CF72B7C08F3007B08F2007A0847
:10086A00F1007908F0000800F601F11F3D2C3E2C3A
:10087A00452CF009F109F00A0319F10AF601F60A02
:10088A00F31F482C492C522CF209F309F20A0319D6
:10089A00F30A0130F4007408F606F701F80170084B
:1008AA0071040319592C5A2C912CF501F50A682C5C
:1008BA0001300310F00DF10DFF3E031D5E2C0130D7
:1008CA00F4007408F507F11F6B2C6C2C5D2C0130B9
:1008DA000310F70DF80DFF3E031D6D2C710873020E
:1008EA00031D792C70087202031C7C2C7D2C842C2D
:1008FA007008F2027108031CF303F3027714013043
:10090A000310F10CF00CFF3E031D852C0130F5029B
:10091A00031D902C912C6C2C76080319952C962C7F
:10092A009B2CF709F809F70A0319F80A7808F10065
:10093A007708F000080083120313AB002130A700E8
:10094A004C2D25302C060319AB2CAC2CB62C2B08BD
:10095A0084002C08831380000130A3002308AB070E
:10096A004C2DA601BD2CC030A3002308A604D72C09
:10097A000130A007FF30200784000A128A110D20D7
:10098A000A128A11AC00A300A4012408003A031930
:10099A00CF2C4C2D2308003A03195C2D753A031904
:1009AA00B82C4C2D2708840083130008A800840A59
:1009BA000008A9000230A3002308A707AC01AC0A6B
:1009CA002C08A3002307013E84000A128A110D2075
:1009DA000A128A11A4000A128A110D200A128A1117
:1009EA00A50025082902031DFC2C24082802031847
:1009FA00FF2C002D012D0B2D0130A3002308AC077D
:100A0A0005302C06031D0A2D0B2DE52C2C08AA00F7
:100A1A00432D0A30F8000030F9002A08A300230702
:100A2A00013E84000A128A110D200A128A11F0006E
:100A3A000A128A110D200A128A11F1002908F300FC
:100A4A002808F2000A128A118D210A128A117108E5
:100A5A00FB007008FA000A128A1111210A128A117F
:100A6A007808303E83120313AC002B0884002C084C
:100A7A00831380000130A3002308AB07FF30A300D3
:100A8A002308AA072A0A031D4B2D4C2D0E2D0130CF
:100A9A00A007FF30200784000A128A110D200A12CB
:100AAA008A11AC002C08031D5B2D5C2DA62C2B088B
:100ABA0084008313800108000A128A1151200A1245
:100ACA008A110A128A15AA270A128A11F401F40A4B
:100ADA0001300A128A11D1210A128A110B30F5004B
:100AEA008030F6000A128A114B210A128A110A3042
:100AFA00F40001300A128A11D1210A128A110D302A
:100B0A00F5008030F6000A128A114B210A128A1166
:100B1A000D30F40001300A128A11D1210A128A1109
:100B2A000D30F5008030F6000A128A114B210A12A4
:100B3A008A110A128A1598270A128A111130F000AE
:100B4A000030F1000A128A1125200A128A11003097
:100B5A00F000F1000A128A1176200A128A1170082E
:100B6A0083120313E0000A128A15A1270A128A11B6
:100B7A00033083120313AF000830AE007630AD00A5
:100B8A00AD0BC52DAE0BC52DAF0BC52D00006430C6
:100B9A00F0000030F100831203136008AD00AE01CB
:100BAA002D08F2002E08F3000A128A1139240A12BB
:100BBA008A11700883120313D6000A30F900003034
:100BCA00FA000A30F0000030F1006008AD00AE0112
:100BDA002D08F2002E08F3000A128A1139240A128B
:100BEA008A117108FC007008FB000A128A111B2383
:100BFA000A128A11790883120313D5000A30F90000
:100C0A000030FA006008AD00AE012D08FB002E0886
:100C1A00FC000A128A111B230A128A11790883120C
:100C2A000313D4000F30A0005608AD00AE012D0802
:100C3A00A1002E08A2004B300A128A11A0240A121F
:100C4A008A11F401F40A02300A128A11D1210A1215
:100C5A008A114B30F5000030F6000A128A114B2136
:100C6A000A128A110F3083120313A0005508AD002F
:100C7A00AE012D08A1002E08A2004B300A128A11DB
:100C8A00A0240A128A110230F40002300A128A11D0
:100C9A00D1210A128A114B30F5000030F6000A12EF
:100CAA008A114B210A128A110F3083120313A000F2
:100CBA005408AD00AE012D08A1002E08A2004B3049
:100CCA000A128A11A0240A128A110330F40002308F
:100CDA000A128A11D1210A128A114B30F50000300A
:100CEA00F6000A128A114B210A128A110A128A1173
:100CFA0017220A128A1183120313DD000A30F9003F
:100D0A000030FA000A30F0000030F1005D08AD0052
:100D1A00AE012D08F2002E08F3000A128A113924B6
:100D2A000A128A117108FC007008FB000A128A1163
:100D3A001B230A128A11790883120313D8000A3076
:100D4A00F9000030FA005D08AD00AE012D08FB0085
:100D5A002E08FC000A128A111B230A128A1179082A
:100D6A0083120313D7000F30A0005808AD00AE015C
:100D7A002D08A1002E08A20030300A128A11A024E0
:100D8A000A128A110E30F40001300A128A11D12196
:100D9A000A128A113030F5000030F6000A128A1160
:100DAA004B210A128A110F3083120313A00057082D
:100DBA00AD00AE012D08A1002E08A20030300A12A3
:100DCA008A11A0240A128A110F30F40001300A1283
:100DDA008A11D1210A128A113030F5000030F6004A
:100DEA000A128A114B210A128A110A128A11C42282
:100DFA000A128A1183120313DE000A30F900003046
:100E0A00FA000A30F0000030F1005E08AD00AE01D1
:100E1A002D08F2002E08F3000A128A1139240A1248
:100E2A008A117108FC007008FB000A128A111B2340
:100E3A000A128A11790883120313DA000A30F900B8
:100E4A000030FA005E08AD00AE012D08FB002E0846
:100E5A00FC000A128A111B230A128A1179088312CA
:100E6A000313D9000F30A0005A08AD00AE012D08B7
:100E7A00A1002E08A20039300A128A11A0240A12EF
:100E8A008A110B30F40001300A128A11D1210A1298
:100E9A008A113930F5000030F6000A128A114B2106
:100EAA000A128A110F3083120313A0005908AD00E9
:100EBA00AE012D08A1002E08A20039300A128A11AB
:100ECA00A0240A128A110C30F40001300A128A1185
:100EDA00D1210A128A113930F5000030F6000A12BF
:100EEA008A114B210A128A110A128A116D220A12D8
:100EFA008A1183120313DF000A30F9000030FA0066
:100F0A000A30F0000030F1005F08AD00AE012D0894
:100F1A00F2002E08F3000A128A1139240A128A11E1
:100F2A007108FC007008FB000A128A111B230A12BE
:100F3A008A11790883120313DC000A30F9000030A1
:100F4A00FA005F08AD00AE012D08FB002E08FC0078
:100F5A000A128A111B230A128A11790883120313AF
:100F6A00DB000F30A0005C08AD00AE012D08A10027
:100F7A002E08A20042300A128A11A0240A128A11EB
:100F8A000830F40001300A128A11D1210A128A119A
:100F9A004230F5000030F6000A128A114B210A127B
:100FAA008A110F3083120313A0005B08AD00AE0153
:100FBA002D08A1002E08A20042300A128A11A0248C
:100FCA000A128A110930F40001300A128A11D12159
:100FDA000A128A114230F5000030F6000A128A110C
:100FEA004B210A128A119E2D0A128A1100288301A6
:060FFA000A128A11612DAC
:101F1E000A128A15B7270A128A158316031391140B
:101F2E0008000A128A15B7270A128A158316031398
:101F3E00111408000A128A15B7270A128A15831679
:101F4E0003131115080000300A128A15E6270A122B
:101F5E008A1501300A128A15E6270A128A15080018
:101F6E00831603131419BC2FBD2FB72F11081F3959
:101F7E00031DC22FC32FB72F0800F1007108F00008
:101F8E00F00E831603130F0870068F3970068F003C
:101F9E000F140800F300F201731CD62FD72FDB2F7E
:101FAE007008F1007108F2070310F00D0310F30C26
:101FBE007308031DE32FE42FD32F72080800F300DC
:101FCE0083120313081173080A128A112F200A12A2
:101FDE008A158312031388150B30F2006230F1005C
:101FEE00F10BF72FF20BF72F00008312031388115A
:021FFE000800D9
:08400000FF3FFF3FFF3FFF3FC0
:04400E00D420FF3F7C
:00000001FF
